{
	"contracts/testing-grounds/ContractA.sol": {
		"ContractA": {
			"abi": [
				{
					"inputs": [],
					"stateMutability": "nonpayable",
					"type": "constructor"
				},
				{
					"inputs": [],
					"name": "contractB",
					"outputs": [
						{
							"internalType": "contract ContractB",
							"name": "",
							"type": "address"
						}
					],
					"stateMutability": "view",
					"type": "function"
				},
				{
					"inputs": [],
					"name": "deposit",
					"outputs": [],
					"stateMutability": "payable",
					"type": "function"
				},
				{
					"inputs": [],
					"name": "getBalance",
					"outputs": [
						{
							"internalType": "uint256",
							"name": "",
							"type": "uint256"
						}
					],
					"stateMutability": "view",
					"type": "function"
				},
				{
					"inputs": [],
					"name": "withdrawFromDex",
					"outputs": [],
					"stateMutability": "nonpayable",
					"type": "function"
				}
			],
			"devdoc": {
				"kind": "dev",
				"methods": {},
				"version": 1
			},
			"evm": {
				"assembly": "    /* \"contracts/testing-grounds/ContractA.sol\":83:807  contract ContractA {... */\n  mstore(0x40, 0x80)\n    /* \"contracts/testing-grounds/ContractA.sol\":140:198  constructor() {... */\n  callvalue\n  dup1\n  iszero\n  tag_1\n  jumpi\n  0x00\n  dup1\n  revert\ntag_1:\n  pop\n    /* \"contracts/testing-grounds/ContractA.sol\":176:191  new ContractB() */\n  mload(0x40)\n  tag_4\n  swap1\n  tag_5\n  jump\t// in\ntag_4:\n  mload(0x40)\n  dup1\n  swap2\n  sub\n  swap1\n  0x00\n  create\n  dup1\n  iszero\n  dup1\n  iszero\n  tag_6\n  jumpi\n  returndatasize\n  0x00\n  dup1\n  returndatacopy\n  revert(0x00, returndatasize)\ntag_6:\n  pop\n    /* \"contracts/testing-grounds/ContractA.sol\":164:173  contractB */\n  0x00\n  dup1\n    /* \"contracts/testing-grounds/ContractA.sol\":164:191  contractB = new ContractB() */\n  0x0100\n  exp\n  dup2\n  sload\n  dup2\n  0xffffffffffffffffffffffffffffffffffffffff\n  mul\n  not\n  and\n  swap1\n  dup4\n  0xffffffffffffffffffffffffffffffffffffffff\n  and\n  mul\n  or\n  swap1\n  sstore\n  pop\n    /* \"contracts/testing-grounds/ContractA.sol\":83:807  contract ContractA {... */\n  jump(tag_7)\ntag_5:\n  dataSize(sub_1)\n  dup1\n  dataOffset(sub_1)\n  dup4\n  codecopy\n  add\n  swap1\n  jump\t// out\ntag_7:\n  dataSize(sub_0)\n  dup1\n  dataOffset(sub_0)\n  0x00\n  codecopy\n  0x00\n  return\nstop\n\nsub_0: assembly {\n        /* \"contracts/testing-grounds/ContractA.sol\":83:807  contract ContractA {... */\n      mstore(0x40, 0x80)\n      jumpi(tag_1, lt(calldatasize, 0x04))\n      shr(0xe0, calldataload(0x00))\n      dup1\n      0x12065fe0\n      eq\n      tag_2\n      jumpi\n      dup1\n      0x9ff8a368\n      eq\n      tag_3\n      jumpi\n      dup1\n      0xd0e30db0\n      eq\n      tag_4\n      jumpi\n      dup1\n      0xdf5a8e4c\n      eq\n      tag_5\n      jumpi\n    tag_1:\n      0x00\n      dup1\n      revert\n        /* \"contracts/testing-grounds/ContractA.sol\":612:706  function getBalance() public view returns(uint) {... */\n    tag_2:\n      callvalue\n      dup1\n      iszero\n      tag_6\n      jumpi\n      0x00\n      dup1\n      revert\n    tag_6:\n      pop\n      tag_7\n      tag_8\n      jump\t// in\n    tag_7:\n      mload(0x40)\n      tag_9\n      swap2\n      swap1\n      tag_10\n      jump\t// in\n    tag_9:\n      mload(0x40)\n      dup1\n      swap2\n      sub\n      swap1\n      return\n        /* \"contracts/testing-grounds/ContractA.sol\":108:134  ContractB public contractB */\n    tag_3:\n      callvalue\n      dup1\n      iszero\n      tag_11\n      jumpi\n      0x00\n      dup1\n      revert\n    tag_11:\n      pop\n      tag_12\n      tag_13\n      jump\t// in\n    tag_12:\n      mload(0x40)\n      tag_14\n      swap2\n      swap1\n      tag_15\n      jump\t// in\n    tag_14:\n      mload(0x40)\n      dup1\n      swap2\n      sub\n      swap1\n      return\n        /* \"contracts/testing-grounds/ContractA.sol\":204:606  function deposit() public payable {... */\n    tag_4:\n      tag_16\n      tag_17\n      jump\t// in\n    tag_16:\n      stop\n        /* \"contracts/testing-grounds/ContractA.sol\":712:805  function withdrawFromDex() public {... */\n    tag_5:\n      callvalue\n      dup1\n      iszero\n      tag_18\n      jumpi\n      0x00\n      dup1\n      revert\n    tag_18:\n      pop\n      tag_19\n      tag_20\n      jump\t// in\n    tag_19:\n      stop\n        /* \"contracts/testing-grounds/ContractA.sol\":612:706  function getBalance() public view returns(uint) {... */\n    tag_8:\n        /* \"contracts/testing-grounds/ContractA.sol\":654:658  uint */\n      0x00\n        /* \"contracts/testing-grounds/ContractA.sol\":677:686  contractB */\n      dup1\n      0x00\n      swap1\n      sload\n      swap1\n      0x0100\n      exp\n      swap1\n      div\n      0xffffffffffffffffffffffffffffffffffffffff\n      and\n        /* \"contracts/testing-grounds/ContractA.sol\":677:697  contractB.getBalance */\n      0xffffffffffffffffffffffffffffffffffffffff\n      and\n      0x12065fe0\n        /* \"contracts/testing-grounds/ContractA.sol\":677:699  contractB.getBalance() */\n      mload(0x40)\n      dup2\n      0xffffffff\n      and\n      0xe0\n      shl\n      dup2\n      mstore\n      0x04\n      add\n      0x20\n      mload(0x40)\n      dup1\n      dup4\n      sub\n      dup2\n      dup7\n      gas\n      staticcall\n      iszero\n      dup1\n      iszero\n      tag_23\n      jumpi\n      returndatasize\n      0x00\n      dup1\n      returndatacopy\n      revert(0x00, returndatasize)\n    tag_23:\n      pop\n      pop\n      pop\n      pop\n      mload(0x40)\n      returndatasize\n      not(0x1f)\n      0x1f\n      dup3\n      add\n      and\n      dup3\n      add\n      dup1\n      0x40\n      mstore\n      pop\n      dup2\n      add\n      swap1\n      tag_24\n      swap2\n      swap1\n      tag_25\n      jump\t// in\n    tag_24:\n        /* \"contracts/testing-grounds/ContractA.sol\":670:699  return contractB.getBalance() */\n      swap1\n      pop\n        /* \"contracts/testing-grounds/ContractA.sol\":612:706  function getBalance() public view returns(uint) {... */\n      swap1\n      jump\t// out\n        /* \"contracts/testing-grounds/ContractA.sol\":108:134  ContractB public contractB */\n    tag_13:\n      0x00\n      dup1\n      sload\n      swap1\n      0x0100\n      exp\n      swap1\n      div\n      0xffffffffffffffffffffffffffffffffffffffff\n      and\n      dup2\n      jump\t// out\n        /* \"contracts/testing-grounds/ContractA.sol\":204:606  function deposit() public payable {... */\n    tag_17:\n        /* \"contracts/testing-grounds/ContractA.sol\":538:547  contractB */\n      0x00\n      dup1\n      sload\n      swap1\n      0x0100\n      exp\n      swap1\n      div\n      0xffffffffffffffffffffffffffffffffffffffff\n      and\n        /* \"contracts/testing-grounds/ContractA.sol\":538:555  contractB.deposit */\n      0xffffffffffffffffffffffffffffffffffffffff\n      and\n      0xd0e30db0\n        /* \"contracts/testing-grounds/ContractA.sol\":563:584  address(this).balance */\n      selfbalance\n        /* \"contracts/testing-grounds/ContractA.sol\":591:596  10000 */\n      0x2710\n        /* \"contracts/testing-grounds/ContractA.sol\":538:599  contractB.deposit{value: address(this).balance, gas: 10000}() */\n      swap1\n      mload(0x40)\n      dup4\n      0xffffffff\n      and\n      0xe0\n      shl\n      dup2\n      mstore\n      0x04\n      add\n      0x00\n      mload(0x40)\n      dup1\n      dup4\n      sub\n      dup2\n      dup6\n      dup10\n      dup1\n      extcodesize\n      iszero\n      dup1\n      iszero\n      tag_27\n      jumpi\n      0x00\n      dup1\n      revert\n    tag_27:\n      pop\n      dup9\n      call\n      iszero\n      dup1\n      iszero\n      tag_29\n      jumpi\n      returndatasize\n      0x00\n      dup1\n      returndatacopy\n      revert(0x00, returndatasize)\n    tag_29:\n      pop\n      pop\n      pop\n      pop\n      pop\n      pop\n        /* \"contracts/testing-grounds/ContractA.sol\":204:606  function deposit() public payable {... */\n      jump\t// out\n        /* \"contracts/testing-grounds/ContractA.sol\":712:805  function withdrawFromDex() public {... */\n    tag_20:\n        /* \"contracts/testing-grounds/ContractA.sol\":756:765  contractB */\n      0x00\n      dup1\n      sload\n      swap1\n      0x0100\n      exp\n      swap1\n      div\n      0xffffffffffffffffffffffffffffffffffffffff\n      and\n        /* \"contracts/testing-grounds/ContractA.sol\":756:777  contractB.withdrawAll */\n      0xffffffffffffffffffffffffffffffffffffffff\n      and\n      0xfa09e630\n        /* \"contracts/testing-grounds/ContractA.sol\":786:796  msg.sender */\n      caller\n        /* \"contracts/testing-grounds/ContractA.sol\":756:798  contractB.withdrawAll(payable(msg.sender)) */\n      mload(0x40)\n      dup3\n      0xffffffff\n      and\n      0xe0\n      shl\n      dup2\n      mstore\n      0x04\n      add\n      tag_31\n      swap2\n      swap1\n      tag_32\n      jump\t// in\n    tag_31:\n      0x00\n      mload(0x40)\n      dup1\n      dup4\n      sub\n      dup2\n      0x00\n      dup8\n      dup1\n      extcodesize\n      iszero\n      dup1\n      iszero\n      tag_33\n      jumpi\n      0x00\n      dup1\n      revert\n    tag_33:\n      pop\n      gas\n      call\n      iszero\n      dup1\n      iszero\n      tag_35\n      jumpi\n      returndatasize\n      0x00\n      dup1\n      returndatacopy\n      revert(0x00, returndatasize)\n    tag_35:\n      pop\n      pop\n      pop\n      pop\n        /* \"contracts/testing-grounds/ContractA.sol\":712:805  function withdrawFromDex() public {... */\n      jump\t// out\n        /* \"#utility.yul\":7:84   */\n    tag_36:\n        /* \"#utility.yul\":44:51   */\n      0x00\n        /* \"#utility.yul\":73:78   */\n      dup2\n        /* \"#utility.yul\":62:78   */\n      swap1\n      pop\n        /* \"#utility.yul\":7:84   */\n      swap2\n      swap1\n      pop\n      jump\t// out\n        /* \"#utility.yul\":90:208   */\n    tag_37:\n        /* \"#utility.yul\":177:201   */\n      tag_54\n        /* \"#utility.yul\":195:200   */\n      dup2\n        /* \"#utility.yul\":177:201   */\n      tag_36\n      jump\t// in\n    tag_54:\n        /* \"#utility.yul\":172:175   */\n      dup3\n        /* \"#utility.yul\":165:202   */\n      mstore\n        /* \"#utility.yul\":90:208   */\n      pop\n      pop\n      jump\t// out\n        /* \"#utility.yul\":214:436   */\n    tag_10:\n        /* \"#utility.yul\":307:311   */\n      0x00\n        /* \"#utility.yul\":345:347   */\n      0x20\n        /* \"#utility.yul\":334:343   */\n      dup3\n        /* \"#utility.yul\":330:348   */\n      add\n        /* \"#utility.yul\":322:348   */\n      swap1\n      pop\n        /* \"#utility.yul\":358:429   */\n      tag_56\n        /* \"#utility.yul\":426:427   */\n      0x00\n        /* \"#utility.yul\":415:424   */\n      dup4\n        /* \"#utility.yul\":411:428   */\n      add\n        /* \"#utility.yul\":402:408   */\n      dup5\n        /* \"#utility.yul\":358:429   */\n      tag_37\n      jump\t// in\n    tag_56:\n        /* \"#utility.yul\":214:436   */\n      swap3\n      swap2\n      pop\n      pop\n      jump\t// out\n        /* \"#utility.yul\":442:568   */\n    tag_38:\n        /* \"#utility.yul\":479:486   */\n      0x00\n        /* \"#utility.yul\":519:561   */\n      0xffffffffffffffffffffffffffffffffffffffff\n        /* \"#utility.yul\":512:517   */\n      dup3\n        /* \"#utility.yul\":508:562   */\n      and\n        /* \"#utility.yul\":497:562   */\n      swap1\n      pop\n        /* \"#utility.yul\":442:568   */\n      swap2\n      swap1\n      pop\n      jump\t// out\n        /* \"#utility.yul\":574:634   */\n    tag_39:\n        /* \"#utility.yul\":602:605   */\n      0x00\n        /* \"#utility.yul\":623:628   */\n      dup2\n        /* \"#utility.yul\":616:628   */\n      swap1\n      pop\n        /* \"#utility.yul\":574:634   */\n      swap2\n      swap1\n      pop\n      jump\t// out\n        /* \"#utility.yul\":640:782   */\n    tag_40:\n        /* \"#utility.yul\":690:699   */\n      0x00\n        /* \"#utility.yul\":723:776   */\n      tag_60\n        /* \"#utility.yul\":741:775   */\n      tag_61\n        /* \"#utility.yul\":750:774   */\n      tag_62\n        /* \"#utility.yul\":768:773   */\n      dup5\n        /* \"#utility.yul\":750:774   */\n      tag_38\n      jump\t// in\n    tag_62:\n        /* \"#utility.yul\":741:775   */\n      tag_39\n      jump\t// in\n    tag_61:\n        /* \"#utility.yul\":723:776   */\n      tag_38\n      jump\t// in\n    tag_60:\n        /* \"#utility.yul\":710:776   */\n      swap1\n      pop\n        /* \"#utility.yul\":640:782   */\n      swap2\n      swap1\n      pop\n      jump\t// out\n        /* \"#utility.yul\":788:914   */\n    tag_41:\n        /* \"#utility.yul\":838:847   */\n      0x00\n        /* \"#utility.yul\":871:908   */\n      tag_64\n        /* \"#utility.yul\":902:907   */\n      dup3\n        /* \"#utility.yul\":871:908   */\n      tag_40\n      jump\t// in\n    tag_64:\n        /* \"#utility.yul\":858:908   */\n      swap1\n      pop\n        /* \"#utility.yul\":788:914   */\n      swap2\n      swap1\n      pop\n      jump\t// out\n        /* \"#utility.yul\":920:1062   */\n    tag_42:\n        /* \"#utility.yul\":986:995   */\n      0x00\n        /* \"#utility.yul\":1019:1056   */\n      tag_66\n        /* \"#utility.yul\":1050:1055   */\n      dup3\n        /* \"#utility.yul\":1019:1056   */\n      tag_41\n      jump\t// in\n    tag_66:\n        /* \"#utility.yul\":1006:1056   */\n      swap1\n      pop\n        /* \"#utility.yul\":920:1062   */\n      swap2\n      swap1\n      pop\n      jump\t// out\n        /* \"#utility.yul\":1068:1231   */\n    tag_43:\n        /* \"#utility.yul\":1171:1224   */\n      tag_68\n        /* \"#utility.yul\":1218:1223   */\n      dup2\n        /* \"#utility.yul\":1171:1224   */\n      tag_42\n      jump\t// in\n    tag_68:\n        /* \"#utility.yul\":1166:1169   */\n      dup3\n        /* \"#utility.yul\":1159:1225   */\n      mstore\n        /* \"#utility.yul\":1068:1231   */\n      pop\n      pop\n      jump\t// out\n        /* \"#utility.yul\":1237:1491   */\n    tag_15:\n        /* \"#utility.yul\":1346:1350   */\n      0x00\n        /* \"#utility.yul\":1384:1386   */\n      0x20\n        /* \"#utility.yul\":1373:1382   */\n      dup3\n        /* \"#utility.yul\":1369:1387   */\n      add\n        /* \"#utility.yul\":1361:1387   */\n      swap1\n      pop\n        /* \"#utility.yul\":1397:1484   */\n      tag_70\n        /* \"#utility.yul\":1481:1482   */\n      0x00\n        /* \"#utility.yul\":1470:1479   */\n      dup4\n        /* \"#utility.yul\":1466:1483   */\n      add\n        /* \"#utility.yul\":1457:1463   */\n      dup5\n        /* \"#utility.yul\":1397:1484   */\n      tag_43\n      jump\t// in\n    tag_70:\n        /* \"#utility.yul\":1237:1491   */\n      swap3\n      swap2\n      pop\n      pop\n      jump\t// out\n        /* \"#utility.yul\":1578:1695   */\n    tag_45:\n        /* \"#utility.yul\":1687:1688   */\n      0x00\n        /* \"#utility.yul\":1684:1685   */\n      dup1\n        /* \"#utility.yul\":1677:1689   */\n      revert\n        /* \"#utility.yul\":1824:1946   */\n    tag_47:\n        /* \"#utility.yul\":1897:1921   */\n      tag_75\n        /* \"#utility.yul\":1915:1920   */\n      dup2\n        /* \"#utility.yul\":1897:1921   */\n      tag_36\n      jump\t// in\n    tag_75:\n        /* \"#utility.yul\":1890:1895   */\n      dup2\n        /* \"#utility.yul\":1887:1922   */\n      eq\n        /* \"#utility.yul\":1877:1940   */\n      tag_76\n      jumpi\n        /* \"#utility.yul\":1936:1937   */\n      0x00\n        /* \"#utility.yul\":1933:1934   */\n      dup1\n        /* \"#utility.yul\":1926:1938   */\n      revert\n        /* \"#utility.yul\":1877:1940   */\n    tag_76:\n        /* \"#utility.yul\":1824:1946   */\n      pop\n      jump\t// out\n        /* \"#utility.yul\":1952:2095   */\n    tag_48:\n        /* \"#utility.yul\":2009:2014   */\n      0x00\n        /* \"#utility.yul\":2040:2046   */\n      dup2\n        /* \"#utility.yul\":2034:2047   */\n      mload\n        /* \"#utility.yul\":2025:2047   */\n      swap1\n      pop\n        /* \"#utility.yul\":2056:2089   */\n      tag_78\n        /* \"#utility.yul\":2083:2088   */\n      dup2\n        /* \"#utility.yul\":2056:2089   */\n      tag_47\n      jump\t// in\n    tag_78:\n        /* \"#utility.yul\":1952:2095   */\n      swap3\n      swap2\n      pop\n      pop\n      jump\t// out\n        /* \"#utility.yul\":2101:2452   */\n    tag_25:\n        /* \"#utility.yul\":2171:2177   */\n      0x00\n        /* \"#utility.yul\":2220:2222   */\n      0x20\n        /* \"#utility.yul\":2208:2217   */\n      dup3\n        /* \"#utility.yul\":2199:2206   */\n      dup5\n        /* \"#utility.yul\":2195:2218   */\n      sub\n        /* \"#utility.yul\":2191:2223   */\n      slt\n        /* \"#utility.yul\":2188:2307   */\n      iszero\n      tag_80\n      jumpi\n        /* \"#utility.yul\":2226:2305   */\n      tag_81\n      tag_45\n      jump\t// in\n    tag_81:\n        /* \"#utility.yul\":2188:2307   */\n    tag_80:\n        /* \"#utility.yul\":2346:2347   */\n      0x00\n        /* \"#utility.yul\":2371:2435   */\n      tag_82\n        /* \"#utility.yul\":2427:2434   */\n      dup5\n        /* \"#utility.yul\":2418:2424   */\n      dup3\n        /* \"#utility.yul\":2407:2416   */\n      dup6\n        /* \"#utility.yul\":2403:2425   */\n      add\n        /* \"#utility.yul\":2371:2435   */\n      tag_48\n      jump\t// in\n    tag_82:\n        /* \"#utility.yul\":2361:2435   */\n      swap2\n      pop\n        /* \"#utility.yul\":2317:2445   */\n      pop\n        /* \"#utility.yul\":2101:2452   */\n      swap3\n      swap2\n      pop\n      pop\n      jump\t// out\n        /* \"#utility.yul\":2458:2562   */\n    tag_49:\n        /* \"#utility.yul\":2503:2510   */\n      0x00\n        /* \"#utility.yul\":2532:2556   */\n      tag_84\n        /* \"#utility.yul\":2550:2555   */\n      dup3\n        /* \"#utility.yul\":2532:2556   */\n      tag_38\n      jump\t// in\n    tag_84:\n        /* \"#utility.yul\":2521:2556   */\n      swap1\n      pop\n        /* \"#utility.yul\":2458:2562   */\n      swap2\n      swap1\n      pop\n      jump\t// out\n        /* \"#utility.yul\":2568:2710   */\n    tag_50:\n        /* \"#utility.yul\":2671:2703   */\n      tag_86\n        /* \"#utility.yul\":2697:2702   */\n      dup2\n        /* \"#utility.yul\":2671:2703   */\n      tag_49\n      jump\t// in\n    tag_86:\n        /* \"#utility.yul\":2666:2669   */\n      dup3\n        /* \"#utility.yul\":2659:2704   */\n      mstore\n        /* \"#utility.yul\":2568:2710   */\n      pop\n      pop\n      jump\t// out\n        /* \"#utility.yul\":2716:2970   */\n    tag_32:\n        /* \"#utility.yul\":2825:2829   */\n      0x00\n        /* \"#utility.yul\":2863:2865   */\n      0x20\n        /* \"#utility.yul\":2852:2861   */\n      dup3\n        /* \"#utility.yul\":2848:2866   */\n      add\n        /* \"#utility.yul\":2840:2866   */\n      swap1\n      pop\n        /* \"#utility.yul\":2876:2963   */\n      tag_88\n        /* \"#utility.yul\":2960:2961   */\n      0x00\n        /* \"#utility.yul\":2949:2958   */\n      dup4\n        /* \"#utility.yul\":2945:2962   */\n      add\n        /* \"#utility.yul\":2936:2942   */\n      dup5\n        /* \"#utility.yul\":2876:2963   */\n      tag_50\n      jump\t// in\n    tag_88:\n        /* \"#utility.yul\":2716:2970   */\n      swap3\n      swap2\n      pop\n      pop\n      jump\t// out\n\n    auxdata: 0xa26469706673582212204987928ea0aec9ee713b26ac74540f7185a8d9c937d724dc8001d0a3a30bdc1464736f6c634300080e0033\n}\n\nsub_1: assembly {\n        /* \"contracts/testing-grounds/ContractB.sol\":57:334  contract ContractB {... */\n      mstore(0x40, 0x80)\n      callvalue\n      dup1\n      iszero\n      tag_1\n      jumpi\n      0x00\n      dup1\n      revert\n    tag_1:\n      pop\n      dataSize(sub_0)\n      dup1\n      dataOffset(sub_0)\n      0x00\n      codecopy\n      0x00\n      return\n    stop\n\n    sub_0: assembly {\n            /* \"contracts/testing-grounds/ContractB.sol\":57:334  contract ContractB {... */\n          mstore(0x40, 0x80)\n          jumpi(tag_1, lt(calldatasize, 0x04))\n          shr(0xe0, calldataload(0x00))\n          dup1\n          0x12065fe0\n          eq\n          tag_2\n          jumpi\n          dup1\n          0xd0e30db0\n          eq\n          tag_3\n          jumpi\n          dup1\n          0xfa09e630\n          eq\n          tag_4\n          jumpi\n        tag_1:\n          0x00\n          dup1\n          revert\n            /* \"contracts/testing-grounds/ContractB.sol\":82:174  function getBalance() public view returns(uint) {... */\n        tag_2:\n          callvalue\n          dup1\n          iszero\n          tag_5\n          jumpi\n          0x00\n          dup1\n          revert\n        tag_5:\n          pop\n          tag_6\n          tag_7\n          jump\t// in\n        tag_6:\n          mload(0x40)\n          tag_8\n          swap2\n          swap1\n          tag_9\n          jump\t// in\n        tag_8:\n          mload(0x40)\n          dup1\n          swap2\n          sub\n          swap1\n          return\n            /* \"contracts/testing-grounds/ContractB.sol\":180:222  function deposit() public payable {... */\n        tag_3:\n          tag_10\n          tag_11\n          jump\t// in\n        tag_10:\n          stop\n            /* \"contracts/testing-grounds/ContractB.sol\":232:331  function withdrawAll(address payable to) public {... */\n        tag_4:\n          callvalue\n          dup1\n          iszero\n          tag_12\n          jumpi\n          0x00\n          dup1\n          revert\n        tag_12:\n          pop\n          tag_13\n          0x04\n          dup1\n          calldatasize\n          sub\n          dup2\n          add\n          swap1\n          tag_14\n          swap2\n          swap1\n          tag_15\n          jump\t// in\n        tag_14:\n          tag_16\n          jump\t// in\n        tag_13:\n          stop\n            /* \"contracts/testing-grounds/ContractB.sol\":82:174  function getBalance() public view returns(uint) {... */\n        tag_7:\n            /* \"contracts/testing-grounds/ContractB.sol\":124:128  uint */\n          0x00\n            /* \"contracts/testing-grounds/ContractB.sol\":146:167  address(this).balance */\n          selfbalance\n            /* \"contracts/testing-grounds/ContractB.sol\":139:167  return address(this).balance */\n          swap1\n          pop\n            /* \"contracts/testing-grounds/ContractB.sol\":82:174  function getBalance() public view returns(uint) {... */\n          swap1\n          jump\t// out\n            /* \"contracts/testing-grounds/ContractB.sol\":180:222  function deposit() public payable {... */\n        tag_11:\n          jump\t// out\n            /* \"contracts/testing-grounds/ContractB.sol\":232:331  function withdrawAll(address payable to) public {... */\n        tag_16:\n            /* \"contracts/testing-grounds/ContractB.sol\":290:292  to */\n          dup1\n            /* \"contracts/testing-grounds/ContractB.sol\":290:301  to.transfer */\n          0xffffffffffffffffffffffffffffffffffffffff\n          and\n            /* \"contracts/testing-grounds/ContractB.sol\":290:324  to.transfer(address(this).balance) */\n          0x08fc\n            /* \"contracts/testing-grounds/ContractB.sol\":302:323  address(this).balance */\n          selfbalance\n            /* \"contracts/testing-grounds/ContractB.sol\":290:324  to.transfer(address(this).balance) */\n          swap1\n          dup2\n          iszero\n          mul\n          swap1\n          mload(0x40)\n          0x00\n          mload(0x40)\n          dup1\n          dup4\n          sub\n          dup2\n          dup6\n          dup9\n          dup9\n          call\n          swap4\n          pop\n          pop\n          pop\n          pop\n          iszero\n          dup1\n          iszero\n          tag_21\n          jumpi\n          returndatasize\n          0x00\n          dup1\n          returndatacopy\n          revert(0x00, returndatasize)\n        tag_21:\n          pop\n            /* \"contracts/testing-grounds/ContractB.sol\":232:331  function withdrawAll(address payable to) public {... */\n          pop\n          jump\t// out\n            /* \"#utility.yul\":7:84   */\n        tag_22:\n            /* \"#utility.yul\":44:51   */\n          0x00\n            /* \"#utility.yul\":73:78   */\n          dup2\n            /* \"#utility.yul\":62:78   */\n          swap1\n          pop\n            /* \"#utility.yul\":7:84   */\n          swap2\n          swap1\n          pop\n          jump\t// out\n            /* \"#utility.yul\":90:208   */\n        tag_23:\n            /* \"#utility.yul\":177:201   */\n          tag_34\n            /* \"#utility.yul\":195:200   */\n          dup2\n            /* \"#utility.yul\":177:201   */\n          tag_22\n          jump\t// in\n        tag_34:\n            /* \"#utility.yul\":172:175   */\n          dup3\n            /* \"#utility.yul\":165:202   */\n          mstore\n            /* \"#utility.yul\":90:208   */\n          pop\n          pop\n          jump\t// out\n            /* \"#utility.yul\":214:436   */\n        tag_9:\n            /* \"#utility.yul\":307:311   */\n          0x00\n            /* \"#utility.yul\":345:347   */\n          0x20\n            /* \"#utility.yul\":334:343   */\n          dup3\n            /* \"#utility.yul\":330:348   */\n          add\n            /* \"#utility.yul\":322:348   */\n          swap1\n          pop\n            /* \"#utility.yul\":358:429   */\n          tag_36\n            /* \"#utility.yul\":426:427   */\n          0x00\n            /* \"#utility.yul\":415:424   */\n          dup4\n            /* \"#utility.yul\":411:428   */\n          add\n            /* \"#utility.yul\":402:408   */\n          dup5\n            /* \"#utility.yul\":358:429   */\n          tag_23\n          jump\t// in\n        tag_36:\n            /* \"#utility.yul\":214:436   */\n          swap3\n          swap2\n          pop\n          pop\n          jump\t// out\n            /* \"#utility.yul\":523:640   */\n        tag_25:\n            /* \"#utility.yul\":632:633   */\n          0x00\n            /* \"#utility.yul\":629:630   */\n          dup1\n            /* \"#utility.yul\":622:634   */\n          revert\n            /* \"#utility.yul\":769:895   */\n        tag_27:\n            /* \"#utility.yul\":806:813   */\n          0x00\n            /* \"#utility.yul\":846:888   */\n          0xffffffffffffffffffffffffffffffffffffffff\n            /* \"#utility.yul\":839:844   */\n          dup3\n            /* \"#utility.yul\":835:889   */\n          and\n            /* \"#utility.yul\":824:889   */\n          swap1\n          pop\n            /* \"#utility.yul\":769:895   */\n          swap2\n          swap1\n          pop\n          jump\t// out\n            /* \"#utility.yul\":901:1005   */\n        tag_28:\n            /* \"#utility.yul\":946:953   */\n          0x00\n            /* \"#utility.yul\":975:999   */\n          tag_42\n            /* \"#utility.yul\":993:998   */\n          dup3\n            /* \"#utility.yul\":975:999   */\n          tag_27\n          jump\t// in\n        tag_42:\n            /* \"#utility.yul\":964:999   */\n          swap1\n          pop\n            /* \"#utility.yul\":901:1005   */\n          swap2\n          swap1\n          pop\n          jump\t// out\n            /* \"#utility.yul\":1011:1149   */\n        tag_29:\n            /* \"#utility.yul\":1092:1124   */\n          tag_44\n            /* \"#utility.yul\":1118:1123   */\n          dup2\n            /* \"#utility.yul\":1092:1124   */\n          tag_28\n          jump\t// in\n        tag_44:\n            /* \"#utility.yul\":1085:1090   */\n          dup2\n            /* \"#utility.yul\":1082:1125   */\n          eq\n            /* \"#utility.yul\":1072:1143   */\n          tag_45\n          jumpi\n            /* \"#utility.yul\":1139:1140   */\n          0x00\n            /* \"#utility.yul\":1136:1137   */\n          dup1\n            /* \"#utility.yul\":1129:1141   */\n          revert\n            /* \"#utility.yul\":1072:1143   */\n        tag_45:\n            /* \"#utility.yul\":1011:1149   */\n          pop\n          jump\t// out\n            /* \"#utility.yul\":1155:1310   */\n        tag_30:\n            /* \"#utility.yul\":1209:1214   */\n          0x00\n            /* \"#utility.yul\":1247:1253   */\n          dup2\n            /* \"#utility.yul\":1234:1254   */\n          calldataload\n            /* \"#utility.yul\":1225:1254   */\n          swap1\n          pop\n            /* \"#utility.yul\":1263:1304   */\n          tag_47\n            /* \"#utility.yul\":1298:1303   */\n          dup2\n            /* \"#utility.yul\":1263:1304   */\n          tag_29\n          jump\t// in\n        tag_47:\n            /* \"#utility.yul\":1155:1310   */\n          swap3\n          swap2\n          pop\n          pop\n          jump\t// out\n            /* \"#utility.yul\":1316:1661   */\n        tag_15:\n            /* \"#utility.yul\":1383:1389   */\n          0x00\n            /* \"#utility.yul\":1432:1434   */\n          0x20\n            /* \"#utility.yul\":1420:1429   */\n          dup3\n            /* \"#utility.yul\":1411:1418   */\n          dup5\n            /* \"#utility.yul\":1407:1430   */\n          sub\n            /* \"#utility.yul\":1403:1435   */\n          slt\n            /* \"#utility.yul\":1400:1519   */\n          iszero\n          tag_49\n          jumpi\n            /* \"#utility.yul\":1438:1517   */\n          tag_50\n          tag_25\n          jump\t// in\n        tag_50:\n            /* \"#utility.yul\":1400:1519   */\n        tag_49:\n            /* \"#utility.yul\":1558:1559   */\n          0x00\n            /* \"#utility.yul\":1583:1644   */\n          tag_51\n            /* \"#utility.yul\":1636:1643   */\n          dup5\n            /* \"#utility.yul\":1627:1633   */\n          dup3\n            /* \"#utility.yul\":1616:1625   */\n          dup6\n            /* \"#utility.yul\":1612:1634   */\n          add\n            /* \"#utility.yul\":1583:1644   */\n          tag_30\n          jump\t// in\n        tag_51:\n            /* \"#utility.yul\":1573:1644   */\n          swap2\n          pop\n            /* \"#utility.yul\":1529:1654   */\n          pop\n            /* \"#utility.yul\":1316:1661   */\n          swap3\n          swap2\n          pop\n          pop\n          jump\t// out\n\n        auxdata: 0xa2646970667358221220f43727f2c17f20a7614cacd2e45649c383893dd9ae8d35316d6f431da6bc562064736f6c634300080e0033\n    }\n}\n",
				"bytecode": {
					"linkReferences": {},
					"object": "608060405234801561001057600080fd5b5060405161001d9061007e565b604051809103906000f080158015610039573d6000803e3d6000fd5b506000806101000a81548173ffffffffffffffffffffffffffffffffffffffff021916908373ffffffffffffffffffffffffffffffffffffffff16021790555061008b565b610205806104c383390190565b6104298061009a6000396000f3fe60806040526004361061003f5760003560e01c806312065fe0146100445780639ff8a3681461006f578063d0e30db01461009a578063df5a8e4c146100a4575b600080fd5b34801561005057600080fd5b506100596100bb565b60405161006691906102a4565b60405180910390f35b34801561007b57600080fd5b50610084610152565b604051610091919061033e565b60405180910390f35b6100a2610176565b005b3480156100b057600080fd5b506100b96101fe565b005b60008060009054906101000a900473ffffffffffffffffffffffffffffffffffffffff1673ffffffffffffffffffffffffffffffffffffffff166312065fe06040518163ffffffff1660e01b8152600401602060405180830381865afa158015610129573d6000803e3d6000fd5b505050506040513d601f19601f8201168201806040525081019061014d919061038a565b905090565b60008054906101000a900473ffffffffffffffffffffffffffffffffffffffff1681565b60008054906101000a900473ffffffffffffffffffffffffffffffffffffffff1673ffffffffffffffffffffffffffffffffffffffff1663d0e30db047612710906040518363ffffffff1660e01b81526004016000604051808303818589803b1580156101e257600080fd5b5088f11580156101f6573d6000803e3d6000fd5b505050505050565b60008054906101000a900473ffffffffffffffffffffffffffffffffffffffff1673ffffffffffffffffffffffffffffffffffffffff1663fa09e630336040518263ffffffff1660e01b815260040161025791906103d8565b600060405180830381600087803b15801561027157600080fd5b505af1158015610285573d6000803e3d6000fd5b50505050565b6000819050919050565b61029e8161028b565b82525050565b60006020820190506102b96000830184610295565b92915050565b600073ffffffffffffffffffffffffffffffffffffffff82169050919050565b6000819050919050565b60006103046102ff6102fa846102bf565b6102df565b6102bf565b9050919050565b6000610316826102e9565b9050919050565b60006103288261030b565b9050919050565b6103388161031d565b82525050565b6000602082019050610353600083018461032f565b92915050565b600080fd5b6103678161028b565b811461037257600080fd5b50565b6000815190506103848161035e565b92915050565b6000602082840312156103a05761039f610359565b5b60006103ae84828501610375565b91505092915050565b60006103c2826102bf565b9050919050565b6103d2816103b7565b82525050565b60006020820190506103ed60008301846103c9565b9291505056fea26469706673582212204987928ea0aec9ee713b26ac74540f7185a8d9c937d724dc8001d0a3a30bdc1464736f6c634300080e0033608060405234801561001057600080fd5b506101e5806100206000396000f3fe6080604052600436106100345760003560e01c806312065fe014610039578063d0e30db014610064578063fa09e6301461006e575b600080fd5b34801561004557600080fd5b5061004e610097565b60405161005b9190610104565b60405180910390f35b61006c61009f565b005b34801561007a57600080fd5b5061009560048036038101906100909190610182565b6100a1565b005b600047905090565b565b8073ffffffffffffffffffffffffffffffffffffffff166108fc479081150290604051600060405180830381858888f193505050501580156100e7573d6000803e3d6000fd5b5050565b6000819050919050565b6100fe816100eb565b82525050565b600060208201905061011960008301846100f5565b92915050565b600080fd5b600073ffffffffffffffffffffffffffffffffffffffff82169050919050565b600061014f82610124565b9050919050565b61015f81610144565b811461016a57600080fd5b50565b60008135905061017c81610156565b92915050565b6000602082840312156101985761019761011f565b5b60006101a68482850161016d565b9150509291505056fea2646970667358221220f43727f2c17f20a7614cacd2e45649c383893dd9ae8d35316d6f431da6bc562064736f6c634300080e0033",
					"opcodes": "PUSH1 0x80 PUSH1 0x40 MSTORE CALLVALUE DUP1 ISZERO PUSH2 0x10 JUMPI PUSH1 0x0 DUP1 REVERT JUMPDEST POP PUSH1 0x40 MLOAD PUSH2 0x1D SWAP1 PUSH2 0x7E JUMP JUMPDEST PUSH1 0x40 MLOAD DUP1 SWAP2 SUB SWAP1 PUSH1 0x0 CREATE DUP1 ISZERO DUP1 ISZERO PUSH2 0x39 JUMPI RETURNDATASIZE PUSH1 0x0 DUP1 RETURNDATACOPY RETURNDATASIZE PUSH1 0x0 REVERT JUMPDEST POP PUSH1 0x0 DUP1 PUSH2 0x100 EXP DUP2 SLOAD DUP2 PUSH20 0xFFFFFFFFFFFFFFFFFFFFFFFFFFFFFFFFFFFFFFFF MUL NOT AND SWAP1 DUP4 PUSH20 0xFFFFFFFFFFFFFFFFFFFFFFFFFFFFFFFFFFFFFFFF AND MUL OR SWAP1 SSTORE POP PUSH2 0x8B JUMP JUMPDEST PUSH2 0x205 DUP1 PUSH2 0x4C3 DUP4 CODECOPY ADD SWAP1 JUMP JUMPDEST PUSH2 0x429 DUP1 PUSH2 0x9A PUSH1 0x0 CODECOPY PUSH1 0x0 RETURN INVALID PUSH1 0x80 PUSH1 0x40 MSTORE PUSH1 0x4 CALLDATASIZE LT PUSH2 0x3F JUMPI PUSH1 0x0 CALLDATALOAD PUSH1 0xE0 SHR DUP1 PUSH4 0x12065FE0 EQ PUSH2 0x44 JUMPI DUP1 PUSH4 0x9FF8A368 EQ PUSH2 0x6F JUMPI DUP1 PUSH4 0xD0E30DB0 EQ PUSH2 0x9A JUMPI DUP1 PUSH4 0xDF5A8E4C EQ PUSH2 0xA4 JUMPI JUMPDEST PUSH1 0x0 DUP1 REVERT JUMPDEST CALLVALUE DUP1 ISZERO PUSH2 0x50 JUMPI PUSH1 0x0 DUP1 REVERT JUMPDEST POP PUSH2 0x59 PUSH2 0xBB JUMP JUMPDEST PUSH1 0x40 MLOAD PUSH2 0x66 SWAP2 SWAP1 PUSH2 0x2A4 JUMP JUMPDEST PUSH1 0x40 MLOAD DUP1 SWAP2 SUB SWAP1 RETURN JUMPDEST CALLVALUE DUP1 ISZERO PUSH2 0x7B JUMPI PUSH1 0x0 DUP1 REVERT JUMPDEST POP PUSH2 0x84 PUSH2 0x152 JUMP JUMPDEST PUSH1 0x40 MLOAD PUSH2 0x91 SWAP2 SWAP1 PUSH2 0x33E JUMP JUMPDEST PUSH1 0x40 MLOAD DUP1 SWAP2 SUB SWAP1 RETURN JUMPDEST PUSH2 0xA2 PUSH2 0x176 JUMP JUMPDEST STOP JUMPDEST CALLVALUE DUP1 ISZERO PUSH2 0xB0 JUMPI PUSH1 0x0 DUP1 REVERT JUMPDEST POP PUSH2 0xB9 PUSH2 0x1FE JUMP JUMPDEST STOP JUMPDEST PUSH1 0x0 DUP1 PUSH1 0x0 SWAP1 SLOAD SWAP1 PUSH2 0x100 EXP SWAP1 DIV PUSH20 0xFFFFFFFFFFFFFFFFFFFFFFFFFFFFFFFFFFFFFFFF AND PUSH20 0xFFFFFFFFFFFFFFFFFFFFFFFFFFFFFFFFFFFFFFFF AND PUSH4 0x12065FE0 PUSH1 0x40 MLOAD DUP2 PUSH4 0xFFFFFFFF AND PUSH1 0xE0 SHL DUP2 MSTORE PUSH1 0x4 ADD PUSH1 0x20 PUSH1 0x40 MLOAD DUP1 DUP4 SUB DUP2 DUP7 GAS STATICCALL ISZERO DUP1 ISZERO PUSH2 0x129 JUMPI RETURNDATASIZE PUSH1 0x0 DUP1 RETURNDATACOPY RETURNDATASIZE PUSH1 0x0 REVERT JUMPDEST POP POP POP POP PUSH1 0x40 MLOAD RETURNDATASIZE PUSH1 0x1F NOT PUSH1 0x1F DUP3 ADD AND DUP3 ADD DUP1 PUSH1 0x40 MSTORE POP DUP2 ADD SWAP1 PUSH2 0x14D SWAP2 SWAP1 PUSH2 0x38A JUMP JUMPDEST SWAP1 POP SWAP1 JUMP JUMPDEST PUSH1 0x0 DUP1 SLOAD SWAP1 PUSH2 0x100 EXP SWAP1 DIV PUSH20 0xFFFFFFFFFFFFFFFFFFFFFFFFFFFFFFFFFFFFFFFF AND DUP2 JUMP JUMPDEST PUSH1 0x0 DUP1 SLOAD SWAP1 PUSH2 0x100 EXP SWAP1 DIV PUSH20 0xFFFFFFFFFFFFFFFFFFFFFFFFFFFFFFFFFFFFFFFF AND PUSH20 0xFFFFFFFFFFFFFFFFFFFFFFFFFFFFFFFFFFFFFFFF AND PUSH4 0xD0E30DB0 SELFBALANCE PUSH2 0x2710 SWAP1 PUSH1 0x40 MLOAD DUP4 PUSH4 0xFFFFFFFF AND PUSH1 0xE0 SHL DUP2 MSTORE PUSH1 0x4 ADD PUSH1 0x0 PUSH1 0x40 MLOAD DUP1 DUP4 SUB DUP2 DUP6 DUP10 DUP1 EXTCODESIZE ISZERO DUP1 ISZERO PUSH2 0x1E2 JUMPI PUSH1 0x0 DUP1 REVERT JUMPDEST POP DUP9 CALL ISZERO DUP1 ISZERO PUSH2 0x1F6 JUMPI RETURNDATASIZE PUSH1 0x0 DUP1 RETURNDATACOPY RETURNDATASIZE PUSH1 0x0 REVERT JUMPDEST POP POP POP POP POP POP JUMP JUMPDEST PUSH1 0x0 DUP1 SLOAD SWAP1 PUSH2 0x100 EXP SWAP1 DIV PUSH20 0xFFFFFFFFFFFFFFFFFFFFFFFFFFFFFFFFFFFFFFFF AND PUSH20 0xFFFFFFFFFFFFFFFFFFFFFFFFFFFFFFFFFFFFFFFF AND PUSH4 0xFA09E630 CALLER PUSH1 0x40 MLOAD DUP3 PUSH4 0xFFFFFFFF AND PUSH1 0xE0 SHL DUP2 MSTORE PUSH1 0x4 ADD PUSH2 0x257 SWAP2 SWAP1 PUSH2 0x3D8 JUMP JUMPDEST PUSH1 0x0 PUSH1 0x40 MLOAD DUP1 DUP4 SUB DUP2 PUSH1 0x0 DUP8 DUP1 EXTCODESIZE ISZERO DUP1 ISZERO PUSH2 0x271 JUMPI PUSH1 0x0 DUP1 REVERT JUMPDEST POP GAS CALL ISZERO DUP1 ISZERO PUSH2 0x285 JUMPI RETURNDATASIZE PUSH1 0x0 DUP1 RETURNDATACOPY RETURNDATASIZE PUSH1 0x0 REVERT JUMPDEST POP POP POP POP JUMP JUMPDEST PUSH1 0x0 DUP2 SWAP1 POP SWAP2 SWAP1 POP JUMP JUMPDEST PUSH2 0x29E DUP2 PUSH2 0x28B JUMP JUMPDEST DUP3 MSTORE POP POP JUMP JUMPDEST PUSH1 0x0 PUSH1 0x20 DUP3 ADD SWAP1 POP PUSH2 0x2B9 PUSH1 0x0 DUP4 ADD DUP5 PUSH2 0x295 JUMP JUMPDEST SWAP3 SWAP2 POP POP JUMP JUMPDEST PUSH1 0x0 PUSH20 0xFFFFFFFFFFFFFFFFFFFFFFFFFFFFFFFFFFFFFFFF DUP3 AND SWAP1 POP SWAP2 SWAP1 POP JUMP JUMPDEST PUSH1 0x0 DUP2 SWAP1 POP SWAP2 SWAP1 POP JUMP JUMPDEST PUSH1 0x0 PUSH2 0x304 PUSH2 0x2FF PUSH2 0x2FA DUP5 PUSH2 0x2BF JUMP JUMPDEST PUSH2 0x2DF JUMP JUMPDEST PUSH2 0x2BF JUMP JUMPDEST SWAP1 POP SWAP2 SWAP1 POP JUMP JUMPDEST PUSH1 0x0 PUSH2 0x316 DUP3 PUSH2 0x2E9 JUMP JUMPDEST SWAP1 POP SWAP2 SWAP1 POP JUMP JUMPDEST PUSH1 0x0 PUSH2 0x328 DUP3 PUSH2 0x30B JUMP JUMPDEST SWAP1 POP SWAP2 SWAP1 POP JUMP JUMPDEST PUSH2 0x338 DUP2 PUSH2 0x31D JUMP JUMPDEST DUP3 MSTORE POP POP JUMP JUMPDEST PUSH1 0x0 PUSH1 0x20 DUP3 ADD SWAP1 POP PUSH2 0x353 PUSH1 0x0 DUP4 ADD DUP5 PUSH2 0x32F JUMP JUMPDEST SWAP3 SWAP2 POP POP JUMP JUMPDEST PUSH1 0x0 DUP1 REVERT JUMPDEST PUSH2 0x367 DUP2 PUSH2 0x28B JUMP JUMPDEST DUP2 EQ PUSH2 0x372 JUMPI PUSH1 0x0 DUP1 REVERT JUMPDEST POP JUMP JUMPDEST PUSH1 0x0 DUP2 MLOAD SWAP1 POP PUSH2 0x384 DUP2 PUSH2 0x35E JUMP JUMPDEST SWAP3 SWAP2 POP POP JUMP JUMPDEST PUSH1 0x0 PUSH1 0x20 DUP3 DUP5 SUB SLT ISZERO PUSH2 0x3A0 JUMPI PUSH2 0x39F PUSH2 0x359 JUMP JUMPDEST JUMPDEST PUSH1 0x0 PUSH2 0x3AE DUP5 DUP3 DUP6 ADD PUSH2 0x375 JUMP JUMPDEST SWAP2 POP POP SWAP3 SWAP2 POP POP JUMP JUMPDEST PUSH1 0x0 PUSH2 0x3C2 DUP3 PUSH2 0x2BF JUMP JUMPDEST SWAP1 POP SWAP2 SWAP1 POP JUMP JUMPDEST PUSH2 0x3D2 DUP2 PUSH2 0x3B7 JUMP JUMPDEST DUP3 MSTORE POP POP JUMP JUMPDEST PUSH1 0x0 PUSH1 0x20 DUP3 ADD SWAP1 POP PUSH2 0x3ED PUSH1 0x0 DUP4 ADD DUP5 PUSH2 0x3C9 JUMP JUMPDEST SWAP3 SWAP2 POP POP JUMP INVALID LOG2 PUSH5 0x6970667358 0x22 SLT KECCAK256 0x49 DUP8 SWAP3 DUP15 LOG0 0xAE 0xC9 0xEE PUSH18 0x3B26AC74540F7185A8D9C937D724DC8001D0 LOG3 LOG3 SIGNEXTEND 0xDC EQ PUSH5 0x736F6C6343 STOP ADDMOD 0xE STOP CALLER PUSH1 0x80 PUSH1 0x40 MSTORE CALLVALUE DUP1 ISZERO PUSH2 0x10 JUMPI PUSH1 0x0 DUP1 REVERT JUMPDEST POP PUSH2 0x1E5 DUP1 PUSH2 0x20 PUSH1 0x0 CODECOPY PUSH1 0x0 RETURN INVALID PUSH1 0x80 PUSH1 0x40 MSTORE PUSH1 0x4 CALLDATASIZE LT PUSH2 0x34 JUMPI PUSH1 0x0 CALLDATALOAD PUSH1 0xE0 SHR DUP1 PUSH4 0x12065FE0 EQ PUSH2 0x39 JUMPI DUP1 PUSH4 0xD0E30DB0 EQ PUSH2 0x64 JUMPI DUP1 PUSH4 0xFA09E630 EQ PUSH2 0x6E JUMPI JUMPDEST PUSH1 0x0 DUP1 REVERT JUMPDEST CALLVALUE DUP1 ISZERO PUSH2 0x45 JUMPI PUSH1 0x0 DUP1 REVERT JUMPDEST POP PUSH2 0x4E PUSH2 0x97 JUMP JUMPDEST PUSH1 0x40 MLOAD PUSH2 0x5B SWAP2 SWAP1 PUSH2 0x104 JUMP JUMPDEST PUSH1 0x40 MLOAD DUP1 SWAP2 SUB SWAP1 RETURN JUMPDEST PUSH2 0x6C PUSH2 0x9F JUMP JUMPDEST STOP JUMPDEST CALLVALUE DUP1 ISZERO PUSH2 0x7A JUMPI PUSH1 0x0 DUP1 REVERT JUMPDEST POP PUSH2 0x95 PUSH1 0x4 DUP1 CALLDATASIZE SUB DUP2 ADD SWAP1 PUSH2 0x90 SWAP2 SWAP1 PUSH2 0x182 JUMP JUMPDEST PUSH2 0xA1 JUMP JUMPDEST STOP JUMPDEST PUSH1 0x0 SELFBALANCE SWAP1 POP SWAP1 JUMP JUMPDEST JUMP JUMPDEST DUP1 PUSH20 0xFFFFFFFFFFFFFFFFFFFFFFFFFFFFFFFFFFFFFFFF AND PUSH2 0x8FC SELFBALANCE SWAP1 DUP2 ISZERO MUL SWAP1 PUSH1 0x40 MLOAD PUSH1 0x0 PUSH1 0x40 MLOAD DUP1 DUP4 SUB DUP2 DUP6 DUP9 DUP9 CALL SWAP4 POP POP POP POP ISZERO DUP1 ISZERO PUSH2 0xE7 JUMPI RETURNDATASIZE PUSH1 0x0 DUP1 RETURNDATACOPY RETURNDATASIZE PUSH1 0x0 REVERT JUMPDEST POP POP JUMP JUMPDEST PUSH1 0x0 DUP2 SWAP1 POP SWAP2 SWAP1 POP JUMP JUMPDEST PUSH2 0xFE DUP2 PUSH2 0xEB JUMP JUMPDEST DUP3 MSTORE POP POP JUMP JUMPDEST PUSH1 0x0 PUSH1 0x20 DUP3 ADD SWAP1 POP PUSH2 0x119 PUSH1 0x0 DUP4 ADD DUP5 PUSH2 0xF5 JUMP JUMPDEST SWAP3 SWAP2 POP POP JUMP JUMPDEST PUSH1 0x0 DUP1 REVERT JUMPDEST PUSH1 0x0 PUSH20 0xFFFFFFFFFFFFFFFFFFFFFFFFFFFFFFFFFFFFFFFF DUP3 AND SWAP1 POP SWAP2 SWAP1 POP JUMP JUMPDEST PUSH1 0x0 PUSH2 0x14F DUP3 PUSH2 0x124 JUMP JUMPDEST SWAP1 POP SWAP2 SWAP1 POP JUMP JUMPDEST PUSH2 0x15F DUP2 PUSH2 0x144 JUMP JUMPDEST DUP2 EQ PUSH2 0x16A JUMPI PUSH1 0x0 DUP1 REVERT JUMPDEST POP JUMP JUMPDEST PUSH1 0x0 DUP2 CALLDATALOAD SWAP1 POP PUSH2 0x17C DUP2 PUSH2 0x156 JUMP JUMPDEST SWAP3 SWAP2 POP POP JUMP JUMPDEST PUSH1 0x0 PUSH1 0x20 DUP3 DUP5 SUB SLT ISZERO PUSH2 0x198 JUMPI PUSH2 0x197 PUSH2 0x11F JUMP JUMPDEST JUMPDEST PUSH1 0x0 PUSH2 0x1A6 DUP5 DUP3 DUP6 ADD PUSH2 0x16D JUMP JUMPDEST SWAP2 POP POP SWAP3 SWAP2 POP POP JUMP INVALID LOG2 PUSH5 0x6970667358 0x22 SLT KECCAK256 DELEGATECALL CALLDATACOPY 0x27 CALLCODE 0xC1 PUSH32 0x20A7614CACD2E45649C383893DD9AE8D35316D6F431DA6BC562064736F6C6343 STOP ADDMOD 0xE STOP CALLER "
				},
				"gasEstimates": {
					"creation": {
						"codeDepositCost": "213000",
						"executionCost": "infinite",
						"totalCost": "infinite"
					},
					"external": {
						"contractB()": "infinite",
						"deposit()": "infinite",
						"getBalance()": "infinite",
						"withdrawFromDex()": "infinite"
					}
				},
				"methodIdentifiers": {
					"contractB()": "9ff8a368",
					"deposit()": "d0e30db0",
					"getBalance()": "12065fe0",
					"withdrawFromDex()": "df5a8e4c"
				}
			},
			"storageLayout": {
				"storage": [
					{
						"astId": 5,
						"contract": "contracts/testing-grounds/ContractA.sol:ContractA",
						"label": "contractB",
						"offset": 0,
						"slot": "0",
						"type": "t_contract(ContractB)92"
					}
				],
				"types": {
					"t_contract(ContractB)92": {
						"encoding": "inplace",
						"label": "contract ContractB",
						"numberOfBytes": "20"
					}
				}
			},
			"userdoc": {
				"kind": "user",
				"methods": {},
				"version": 1
			}
		}
	}
}