{
	"contracts/ExampleMappingWithdraws.sol": {
		"ExampleMappingWithdraws": {
			"abi": [
				{
					"inputs": [
						{
							"internalType": "address",
							"name": "",
							"type": "address"
						}
					],
					"name": "balances",
					"outputs": [
						{
							"internalType": "uint256",
							"name": "",
							"type": "uint256"
						}
					],
					"stateMutability": "view",
					"type": "function"
				},
				{
					"inputs": [],
					"name": "getBalance",
					"outputs": [
						{
							"internalType": "uint256",
							"name": "",
							"type": "uint256"
						}
					],
					"stateMutability": "view",
					"type": "function"
				},
				{
					"inputs": [],
					"name": "sendMoney",
					"outputs": [],
					"stateMutability": "payable",
					"type": "function"
				},
				{
					"inputs": [
						{
							"internalType": "address payable",
							"name": "to",
							"type": "address"
						}
					],
					"name": "withdrawAllMoney",
					"outputs": [],
					"stateMutability": "nonpayable",
					"type": "function"
				}
			],
			"devdoc": {
				"kind": "dev",
				"methods": {},
				"version": 1
			},
			"evm": {
				"assembly": "    /* \"contracts/ExampleMappingWithdraws.sol\":57:716  contract ExampleMappingWithdraws {... */\n  mstore(0x40, 0x80)\n  callvalue\n  dup1\n  iszero\n  tag_1\n  jumpi\n  0x00\n  dup1\n  revert\ntag_1:\n  pop\n  dataSize(sub_0)\n  dup1\n  dataOffset(sub_0)\n  0x00\n  codecopy\n  0x00\n  return\nstop\n\nsub_0: assembly {\n        /* \"contracts/ExampleMappingWithdraws.sol\":57:716  contract ExampleMappingWithdraws {... */\n      mstore(0x40, 0x80)\n      jumpi(tag_1, lt(calldatasize, 0x04))\n      shr(0xe0, calldataload(0x00))\n      dup1\n      0x0adec93c\n      eq\n      tag_2\n      jumpi\n      dup1\n      0x12065fe0\n      eq\n      tag_3\n      jumpi\n      dup1\n      0x27e235e3\n      eq\n      tag_4\n      jumpi\n      dup1\n      0xcbedbf5a\n      eq\n      tag_5\n      jumpi\n    tag_1:\n      0x00\n      dup1\n      revert\n        /* \"contracts/ExampleMappingWithdraws.sol\":531:714  function withdrawAllMoney(address payable to) public {... */\n    tag_2:\n      callvalue\n      dup1\n      iszero\n      tag_6\n      jumpi\n      0x00\n      dup1\n      revert\n    tag_6:\n      pop\n      tag_7\n      0x04\n      dup1\n      calldatasize\n      sub\n      dup2\n      add\n      swap1\n      tag_8\n      swap2\n      swap1\n      tag_9\n      jump\t// in\n    tag_8:\n      tag_10\n      jump\t// in\n    tag_7:\n      stop\n        /* \"contracts/ExampleMappingWithdraws.sol\":240:333  function getBalance() public view returns(uint) {... */\n    tag_3:\n      callvalue\n      dup1\n      iszero\n      tag_11\n      jumpi\n      0x00\n      dup1\n      revert\n    tag_11:\n      pop\n      tag_12\n      tag_13\n      jump\t// in\n    tag_12:\n      mload(0x40)\n      tag_14\n      swap2\n      swap1\n      tag_15\n      jump\t// in\n    tag_14:\n      mload(0x40)\n      dup1\n      swap2\n      sub\n      swap1\n      return\n        /* \"contracts/ExampleMappingWithdraws.sol\":97:137  mapping(address => uint) public balances */\n    tag_4:\n      callvalue\n      dup1\n      iszero\n      tag_16\n      jumpi\n      0x00\n      dup1\n      revert\n    tag_16:\n      pop\n      tag_17\n      0x04\n      dup1\n      calldatasize\n      sub\n      dup2\n      add\n      swap1\n      tag_18\n      swap2\n      swap1\n      tag_19\n      jump\t// in\n    tag_18:\n      tag_20\n      jump\t// in\n    tag_17:\n      mload(0x40)\n      tag_21\n      swap2\n      swap1\n      tag_15\n      jump\t// in\n    tag_21:\n      mload(0x40)\n      dup1\n      swap2\n      sub\n      swap1\n      return\n        /* \"contracts/ExampleMappingWithdraws.sol\":148:234  function sendMoney() public payable {... */\n    tag_5:\n      tag_22\n      tag_23\n      jump\t// in\n    tag_22:\n      stop\n        /* \"contracts/ExampleMappingWithdraws.sol\":531:714  function withdrawAllMoney(address payable to) public {... */\n    tag_10:\n        /* \"contracts/ExampleMappingWithdraws.sol\":594:615  uint balanceToSendOut */\n      0x00\n        /* \"contracts/ExampleMappingWithdraws.sol\":618:637  getAccountBalance() */\n      tag_25\n        /* \"contracts/ExampleMappingWithdraws.sol\":618:635  getAccountBalance */\n      tag_26\n        /* \"contracts/ExampleMappingWithdraws.sol\":618:637  getAccountBalance() */\n      jump\t// in\n    tag_25:\n        /* \"contracts/ExampleMappingWithdraws.sol\":594:637  uint balanceToSendOut = getAccountBalance() */\n      swap1\n      pop\n        /* \"contracts/ExampleMappingWithdraws.sol\":647:668  clearAccountBalance() */\n      tag_27\n        /* \"contracts/ExampleMappingWithdraws.sol\":647:666  clearAccountBalance */\n      tag_28\n        /* \"contracts/ExampleMappingWithdraws.sol\":647:668  clearAccountBalance() */\n      jump\t// in\n    tag_27:\n        /* \"contracts/ExampleMappingWithdraws.sol\":678:680  to */\n      dup2\n        /* \"contracts/ExampleMappingWithdraws.sol\":678:689  to.transfer */\n      0xffffffffffffffffffffffffffffffffffffffff\n      and\n        /* \"contracts/ExampleMappingWithdraws.sol\":678:707  to.transfer(balanceToSendOut) */\n      0x08fc\n        /* \"contracts/ExampleMappingWithdraws.sol\":690:706  balanceToSendOut */\n      dup3\n        /* \"contracts/ExampleMappingWithdraws.sol\":678:707  to.transfer(balanceToSendOut) */\n      swap1\n      dup2\n      iszero\n      mul\n      swap1\n      mload(0x40)\n      0x00\n      mload(0x40)\n      dup1\n      dup4\n      sub\n      dup2\n      dup6\n      dup9\n      dup9\n      call\n      swap4\n      pop\n      pop\n      pop\n      pop\n      iszero\n      dup1\n      iszero\n      tag_30\n      jumpi\n      returndatasize\n      0x00\n      dup1\n      returndatacopy\n      revert(0x00, returndatasize)\n    tag_30:\n      pop\n        /* \"contracts/ExampleMappingWithdraws.sol\":584:714  {... */\n      pop\n        /* \"contracts/ExampleMappingWithdraws.sol\":531:714  function withdrawAllMoney(address payable to) public {... */\n      pop\n      jump\t// out\n        /* \"contracts/ExampleMappingWithdraws.sol\":240:333  function getBalance() public view returns(uint) {... */\n    tag_13:\n        /* \"contracts/ExampleMappingWithdraws.sol\":282:286  uint */\n      0x00\n        /* \"contracts/ExampleMappingWithdraws.sol\":305:326  address(this).balance */\n      selfbalance\n        /* \"contracts/ExampleMappingWithdraws.sol\":298:326  return address(this).balance */\n      swap1\n      pop\n        /* \"contracts/ExampleMappingWithdraws.sol\":240:333  function getBalance() public view returns(uint) {... */\n      swap1\n      jump\t// out\n        /* \"contracts/ExampleMappingWithdraws.sol\":97:137  mapping(address => uint) public balances */\n    tag_20:\n      mstore(0x20, 0x00)\n      dup1\n      0x00\n      mstore\n      keccak256(0x00, 0x40)\n      0x00\n      swap2\n      pop\n      swap1\n      pop\n      sload\n      dup2\n      jump\t// out\n        /* \"contracts/ExampleMappingWithdraws.sol\":148:234  function sendMoney() public payable {... */\n    tag_23:\n        /* \"contracts/ExampleMappingWithdraws.sol\":218:227  msg.value */\n      callvalue\n        /* \"contracts/ExampleMappingWithdraws.sol\":194:202  balances */\n      0x00\n        /* \"contracts/ExampleMappingWithdraws.sol\":194:214  balances[msg.sender] */\n      dup1\n        /* \"contracts/ExampleMappingWithdraws.sol\":203:213  msg.sender */\n      caller\n        /* \"contracts/ExampleMappingWithdraws.sol\":194:214  balances[msg.sender] */\n      0xffffffffffffffffffffffffffffffffffffffff\n      and\n      0xffffffffffffffffffffffffffffffffffffffff\n      and\n      dup2\n      mstore\n      0x20\n      add\n      swap1\n      dup2\n      mstore\n      0x20\n      add\n      0x00\n      keccak256\n      0x00\n        /* \"contracts/ExampleMappingWithdraws.sol\":194:227  balances[msg.sender] += msg.value */\n      dup3\n      dup3\n      sload\n      tag_33\n      swap2\n      swap1\n      tag_34\n      jump\t// in\n    tag_33:\n      swap3\n      pop\n      pop\n      dup2\n      swap1\n      sstore\n      pop\n        /* \"contracts/ExampleMappingWithdraws.sol\":148:234  function sendMoney() public payable {... */\n      jump\t// out\n        /* \"contracts/ExampleMappingWithdraws.sol\":339:439  function getAccountBalance() private view returns(uint) {... */\n    tag_26:\n        /* \"contracts/ExampleMappingWithdraws.sol\":389:393  uint */\n      0x00\n        /* \"contracts/ExampleMappingWithdraws.sol\":412:420  balances */\n      dup1\n        /* \"contracts/ExampleMappingWithdraws.sol\":412:432  balances[msg.sender] */\n      0x00\n        /* \"contracts/ExampleMappingWithdraws.sol\":421:431  msg.sender */\n      caller\n        /* \"contracts/ExampleMappingWithdraws.sol\":412:432  balances[msg.sender] */\n      0xffffffffffffffffffffffffffffffffffffffff\n      and\n      0xffffffffffffffffffffffffffffffffffffffff\n      and\n      dup2\n      mstore\n      0x20\n      add\n      swap1\n      dup2\n      mstore\n      0x20\n      add\n      0x00\n      keccak256\n      sload\n        /* \"contracts/ExampleMappingWithdraws.sol\":405:432  return balances[msg.sender] */\n      swap1\n      pop\n        /* \"contracts/ExampleMappingWithdraws.sol\":339:439  function getAccountBalance() private view returns(uint) {... */\n      swap1\n      jump\t// out\n        /* \"contracts/ExampleMappingWithdraws.sol\":445:525  function clearAccountBalance() private {... */\n    tag_28:\n        /* \"contracts/ExampleMappingWithdraws.sol\":517:518  0 */\n      0x00\n        /* \"contracts/ExampleMappingWithdraws.sol\":494:502  balances */\n      dup1\n        /* \"contracts/ExampleMappingWithdraws.sol\":494:514  balances[msg.sender] */\n      0x00\n        /* \"contracts/ExampleMappingWithdraws.sol\":503:513  msg.sender */\n      caller\n        /* \"contracts/ExampleMappingWithdraws.sol\":494:514  balances[msg.sender] */\n      0xffffffffffffffffffffffffffffffffffffffff\n      and\n      0xffffffffffffffffffffffffffffffffffffffff\n      and\n      dup2\n      mstore\n      0x20\n      add\n      swap1\n      dup2\n      mstore\n      0x20\n      add\n      0x00\n      keccak256\n        /* \"contracts/ExampleMappingWithdraws.sol\":494:518  balances[msg.sender] = 0 */\n      dup2\n      swap1\n      sstore\n      pop\n        /* \"contracts/ExampleMappingWithdraws.sol\":445:525  function clearAccountBalance() private {... */\n      jump\t// out\n        /* \"#utility.yul\":88:205   */\n    tag_38:\n        /* \"#utility.yul\":197:198   */\n      0x00\n        /* \"#utility.yul\":194:195   */\n      dup1\n        /* \"#utility.yul\":187:199   */\n      revert\n        /* \"#utility.yul\":334:460   */\n    tag_40:\n        /* \"#utility.yul\":371:378   */\n      0x00\n        /* \"#utility.yul\":411:453   */\n      0xffffffffffffffffffffffffffffffffffffffff\n        /* \"#utility.yul\":404:409   */\n      dup3\n        /* \"#utility.yul\":400:454   */\n      and\n        /* \"#utility.yul\":389:454   */\n      swap1\n      pop\n        /* \"#utility.yul\":334:460   */\n      swap2\n      swap1\n      pop\n      jump\t// out\n        /* \"#utility.yul\":466:570   */\n    tag_41:\n        /* \"#utility.yul\":511:518   */\n      0x00\n        /* \"#utility.yul\":540:564   */\n      tag_56\n        /* \"#utility.yul\":558:563   */\n      dup3\n        /* \"#utility.yul\":540:564   */\n      tag_40\n      jump\t// in\n    tag_56:\n        /* \"#utility.yul\":529:564   */\n      swap1\n      pop\n        /* \"#utility.yul\":466:570   */\n      swap2\n      swap1\n      pop\n      jump\t// out\n        /* \"#utility.yul\":576:714   */\n    tag_42:\n        /* \"#utility.yul\":657:689   */\n      tag_58\n        /* \"#utility.yul\":683:688   */\n      dup2\n        /* \"#utility.yul\":657:689   */\n      tag_41\n      jump\t// in\n    tag_58:\n        /* \"#utility.yul\":650:655   */\n      dup2\n        /* \"#utility.yul\":647:690   */\n      eq\n        /* \"#utility.yul\":637:708   */\n      tag_59\n      jumpi\n        /* \"#utility.yul\":704:705   */\n      0x00\n        /* \"#utility.yul\":701:702   */\n      dup1\n        /* \"#utility.yul\":694:706   */\n      revert\n        /* \"#utility.yul\":637:708   */\n    tag_59:\n        /* \"#utility.yul\":576:714   */\n      pop\n      jump\t// out\n        /* \"#utility.yul\":720:875   */\n    tag_43:\n        /* \"#utility.yul\":774:779   */\n      0x00\n        /* \"#utility.yul\":812:818   */\n      dup2\n        /* \"#utility.yul\":799:819   */\n      calldataload\n        /* \"#utility.yul\":790:819   */\n      swap1\n      pop\n        /* \"#utility.yul\":828:869   */\n      tag_61\n        /* \"#utility.yul\":863:868   */\n      dup2\n        /* \"#utility.yul\":828:869   */\n      tag_42\n      jump\t// in\n    tag_61:\n        /* \"#utility.yul\":720:875   */\n      swap3\n      swap2\n      pop\n      pop\n      jump\t// out\n        /* \"#utility.yul\":881:1226   */\n    tag_9:\n        /* \"#utility.yul\":948:954   */\n      0x00\n        /* \"#utility.yul\":997:999   */\n      0x20\n        /* \"#utility.yul\":985:994   */\n      dup3\n        /* \"#utility.yul\":976:983   */\n      dup5\n        /* \"#utility.yul\":972:995   */\n      sub\n        /* \"#utility.yul\":968:1000   */\n      slt\n        /* \"#utility.yul\":965:1084   */\n      iszero\n      tag_63\n      jumpi\n        /* \"#utility.yul\":1003:1082   */\n      tag_64\n      tag_38\n      jump\t// in\n    tag_64:\n        /* \"#utility.yul\":965:1084   */\n    tag_63:\n        /* \"#utility.yul\":1123:1124   */\n      0x00\n        /* \"#utility.yul\":1148:1209   */\n      tag_65\n        /* \"#utility.yul\":1201:1208   */\n      dup5\n        /* \"#utility.yul\":1192:1198   */\n      dup3\n        /* \"#utility.yul\":1181:1190   */\n      dup6\n        /* \"#utility.yul\":1177:1199   */\n      add\n        /* \"#utility.yul\":1148:1209   */\n      tag_43\n      jump\t// in\n    tag_65:\n        /* \"#utility.yul\":1138:1209   */\n      swap2\n      pop\n        /* \"#utility.yul\":1094:1219   */\n      pop\n        /* \"#utility.yul\":881:1226   */\n      swap3\n      swap2\n      pop\n      pop\n      jump\t// out\n        /* \"#utility.yul\":1232:1309   */\n    tag_44:\n        /* \"#utility.yul\":1269:1276   */\n      0x00\n        /* \"#utility.yul\":1298:1303   */\n      dup2\n        /* \"#utility.yul\":1287:1303   */\n      swap1\n      pop\n        /* \"#utility.yul\":1232:1309   */\n      swap2\n      swap1\n      pop\n      jump\t// out\n        /* \"#utility.yul\":1315:1433   */\n    tag_45:\n        /* \"#utility.yul\":1402:1426   */\n      tag_68\n        /* \"#utility.yul\":1420:1425   */\n      dup2\n        /* \"#utility.yul\":1402:1426   */\n      tag_44\n      jump\t// in\n    tag_68:\n        /* \"#utility.yul\":1397:1400   */\n      dup3\n        /* \"#utility.yul\":1390:1427   */\n      mstore\n        /* \"#utility.yul\":1315:1433   */\n      pop\n      pop\n      jump\t// out\n        /* \"#utility.yul\":1439:1661   */\n    tag_15:\n        /* \"#utility.yul\":1532:1536   */\n      0x00\n        /* \"#utility.yul\":1570:1572   */\n      0x20\n        /* \"#utility.yul\":1559:1568   */\n      dup3\n        /* \"#utility.yul\":1555:1573   */\n      add\n        /* \"#utility.yul\":1547:1573   */\n      swap1\n      pop\n        /* \"#utility.yul\":1583:1654   */\n      tag_70\n        /* \"#utility.yul\":1651:1652   */\n      0x00\n        /* \"#utility.yul\":1640:1649   */\n      dup4\n        /* \"#utility.yul\":1636:1653   */\n      add\n        /* \"#utility.yul\":1627:1633   */\n      dup5\n        /* \"#utility.yul\":1583:1654   */\n      tag_45\n      jump\t// in\n    tag_70:\n        /* \"#utility.yul\":1439:1661   */\n      swap3\n      swap2\n      pop\n      pop\n      jump\t// out\n        /* \"#utility.yul\":1667:1763   */\n    tag_46:\n        /* \"#utility.yul\":1704:1711   */\n      0x00\n        /* \"#utility.yul\":1733:1757   */\n      tag_72\n        /* \"#utility.yul\":1751:1756   */\n      dup3\n        /* \"#utility.yul\":1733:1757   */\n      tag_40\n      jump\t// in\n    tag_72:\n        /* \"#utility.yul\":1722:1757   */\n      swap1\n      pop\n        /* \"#utility.yul\":1667:1763   */\n      swap2\n      swap1\n      pop\n      jump\t// out\n        /* \"#utility.yul\":1769:1891   */\n    tag_47:\n        /* \"#utility.yul\":1842:1866   */\n      tag_74\n        /* \"#utility.yul\":1860:1865   */\n      dup2\n        /* \"#utility.yul\":1842:1866   */\n      tag_46\n      jump\t// in\n    tag_74:\n        /* \"#utility.yul\":1835:1840   */\n      dup2\n        /* \"#utility.yul\":1832:1867   */\n      eq\n        /* \"#utility.yul\":1822:1885   */\n      tag_75\n      jumpi\n        /* \"#utility.yul\":1881:1882   */\n      0x00\n        /* \"#utility.yul\":1878:1879   */\n      dup1\n        /* \"#utility.yul\":1871:1883   */\n      revert\n        /* \"#utility.yul\":1822:1885   */\n    tag_75:\n        /* \"#utility.yul\":1769:1891   */\n      pop\n      jump\t// out\n        /* \"#utility.yul\":1897:2036   */\n    tag_48:\n        /* \"#utility.yul\":1943:1948   */\n      0x00\n        /* \"#utility.yul\":1981:1987   */\n      dup2\n        /* \"#utility.yul\":1968:1988   */\n      calldataload\n        /* \"#utility.yul\":1959:1988   */\n      swap1\n      pop\n        /* \"#utility.yul\":1997:2030   */\n      tag_77\n        /* \"#utility.yul\":2024:2029   */\n      dup2\n        /* \"#utility.yul\":1997:2030   */\n      tag_47\n      jump\t// in\n    tag_77:\n        /* \"#utility.yul\":1897:2036   */\n      swap3\n      swap2\n      pop\n      pop\n      jump\t// out\n        /* \"#utility.yul\":2042:2371   */\n    tag_19:\n        /* \"#utility.yul\":2101:2107   */\n      0x00\n        /* \"#utility.yul\":2150:2152   */\n      0x20\n        /* \"#utility.yul\":2138:2147   */\n      dup3\n        /* \"#utility.yul\":2129:2136   */\n      dup5\n        /* \"#utility.yul\":2125:2148   */\n      sub\n        /* \"#utility.yul\":2121:2153   */\n      slt\n        /* \"#utility.yul\":2118:2237   */\n      iszero\n      tag_79\n      jumpi\n        /* \"#utility.yul\":2156:2235   */\n      tag_80\n      tag_38\n      jump\t// in\n    tag_80:\n        /* \"#utility.yul\":2118:2237   */\n    tag_79:\n        /* \"#utility.yul\":2276:2277   */\n      0x00\n        /* \"#utility.yul\":2301:2354   */\n      tag_81\n        /* \"#utility.yul\":2346:2353   */\n      dup5\n        /* \"#utility.yul\":2337:2343   */\n      dup3\n        /* \"#utility.yul\":2326:2335   */\n      dup6\n        /* \"#utility.yul\":2322:2344   */\n      add\n        /* \"#utility.yul\":2301:2354   */\n      tag_48\n      jump\t// in\n    tag_81:\n        /* \"#utility.yul\":2291:2354   */\n      swap2\n      pop\n        /* \"#utility.yul\":2247:2364   */\n      pop\n        /* \"#utility.yul\":2042:2371   */\n      swap3\n      swap2\n      pop\n      pop\n      jump\t// out\n        /* \"#utility.yul\":2377:2557   */\n    tag_49:\n        /* \"#utility.yul\":2425:2502   */\n      0x4e487b7100000000000000000000000000000000000000000000000000000000\n        /* \"#utility.yul\":2422:2423   */\n      0x00\n        /* \"#utility.yul\":2415:2503   */\n      mstore\n        /* \"#utility.yul\":2522:2526   */\n      0x11\n        /* \"#utility.yul\":2519:2520   */\n      0x04\n        /* \"#utility.yul\":2512:2527   */\n      mstore\n        /* \"#utility.yul\":2546:2550   */\n      0x24\n        /* \"#utility.yul\":2543:2544   */\n      0x00\n        /* \"#utility.yul\":2536:2551   */\n      revert\n        /* \"#utility.yul\":2563:2868   */\n    tag_34:\n        /* \"#utility.yul\":2603:2606   */\n      0x00\n        /* \"#utility.yul\":2622:2642   */\n      tag_84\n        /* \"#utility.yul\":2640:2641   */\n      dup3\n        /* \"#utility.yul\":2622:2642   */\n      tag_44\n      jump\t// in\n    tag_84:\n        /* \"#utility.yul\":2617:2642   */\n      swap2\n      pop\n        /* \"#utility.yul\":2656:2676   */\n      tag_85\n        /* \"#utility.yul\":2674:2675   */\n      dup4\n        /* \"#utility.yul\":2656:2676   */\n      tag_44\n      jump\t// in\n    tag_85:\n        /* \"#utility.yul\":2651:2676   */\n      swap3\n      pop\n        /* \"#utility.yul\":2810:2811   */\n      dup3\n        /* \"#utility.yul\":2742:2808   */\n      0xffffffffffffffffffffffffffffffffffffffffffffffffffffffffffffffff\n        /* \"#utility.yul\":2738:2812   */\n      sub\n        /* \"#utility.yul\":2735:2736   */\n      dup3\n        /* \"#utility.yul\":2732:2813   */\n      gt\n        /* \"#utility.yul\":2729:2836   */\n      iszero\n      tag_86\n      jumpi\n        /* \"#utility.yul\":2816:2834   */\n      tag_87\n      tag_49\n      jump\t// in\n    tag_87:\n        /* \"#utility.yul\":2729:2836   */\n    tag_86:\n        /* \"#utility.yul\":2860:2861   */\n      dup3\n        /* \"#utility.yul\":2857:2858   */\n      dup3\n        /* \"#utility.yul\":2853:2862   */\n      add\n        /* \"#utility.yul\":2846:2862   */\n      swap1\n      pop\n        /* \"#utility.yul\":2563:2868   */\n      swap3\n      swap2\n      pop\n      pop\n      jump\t// out\n\n    auxdata: 0xa264697066735822122068d32b9a79075e90ab673eeadf5988acfcd1534982bc5a68bc4a677ff57fc66064736f6c634300080e0033\n}\n",
				"bytecode": {
					"linkReferences": {},
					"object": "608060405234801561001057600080fd5b5061042b806100206000396000f3fe60806040526004361061003f5760003560e01c80630adec93c1461004457806312065fe01461006d57806327e235e314610098578063cbedbf5a146100d5575b600080fd5b34801561005057600080fd5b5061006b600480360381019061006691906102a4565b6100df565b005b34801561007957600080fd5b5061008261013e565b60405161008f91906102ea565b60405180910390f35b3480156100a457600080fd5b506100bf60048036038101906100ba9190610343565b610146565b6040516100cc91906102ea565b60405180910390f35b6100dd61015e565b005b60006100e96101b5565b90506100f36101fb565b8173ffffffffffffffffffffffffffffffffffffffff166108fc829081150290604051600060405180830381858888f19350505050158015610139573d6000803e3d6000fd5b505050565b600047905090565b60006020528060005260406000206000915090505481565b346000803373ffffffffffffffffffffffffffffffffffffffff1673ffffffffffffffffffffffffffffffffffffffff16815260200190815260200160002060008282546101ac919061039f565b92505081905550565b60008060003373ffffffffffffffffffffffffffffffffffffffff1673ffffffffffffffffffffffffffffffffffffffff16815260200190815260200160002054905090565b60008060003373ffffffffffffffffffffffffffffffffffffffff1673ffffffffffffffffffffffffffffffffffffffff16815260200190815260200160002081905550565b600080fd5b600073ffffffffffffffffffffffffffffffffffffffff82169050919050565b600061027182610246565b9050919050565b61028181610266565b811461028c57600080fd5b50565b60008135905061029e81610278565b92915050565b6000602082840312156102ba576102b9610241565b5b60006102c88482850161028f565b91505092915050565b6000819050919050565b6102e4816102d1565b82525050565b60006020820190506102ff60008301846102db565b92915050565b600061031082610246565b9050919050565b61032081610305565b811461032b57600080fd5b50565b60008135905061033d81610317565b92915050565b60006020828403121561035957610358610241565b5b60006103678482850161032e565b91505092915050565b7f4e487b7100000000000000000000000000000000000000000000000000000000600052601160045260246000fd5b60006103aa826102d1565b91506103b5836102d1565b9250827fffffffffffffffffffffffffffffffffffffffffffffffffffffffffffffffff038211156103ea576103e9610370565b5b82820190509291505056fea264697066735822122068d32b9a79075e90ab673eeadf5988acfcd1534982bc5a68bc4a677ff57fc66064736f6c634300080e0033",
					"opcodes": "PUSH1 0x80 PUSH1 0x40 MSTORE CALLVALUE DUP1 ISZERO PUSH2 0x10 JUMPI PUSH1 0x0 DUP1 REVERT JUMPDEST POP PUSH2 0x42B DUP1 PUSH2 0x20 PUSH1 0x0 CODECOPY PUSH1 0x0 RETURN INVALID PUSH1 0x80 PUSH1 0x40 MSTORE PUSH1 0x4 CALLDATASIZE LT PUSH2 0x3F JUMPI PUSH1 0x0 CALLDATALOAD PUSH1 0xE0 SHR DUP1 PUSH4 0xADEC93C EQ PUSH2 0x44 JUMPI DUP1 PUSH4 0x12065FE0 EQ PUSH2 0x6D JUMPI DUP1 PUSH4 0x27E235E3 EQ PUSH2 0x98 JUMPI DUP1 PUSH4 0xCBEDBF5A EQ PUSH2 0xD5 JUMPI JUMPDEST PUSH1 0x0 DUP1 REVERT JUMPDEST CALLVALUE DUP1 ISZERO PUSH2 0x50 JUMPI PUSH1 0x0 DUP1 REVERT JUMPDEST POP PUSH2 0x6B PUSH1 0x4 DUP1 CALLDATASIZE SUB DUP2 ADD SWAP1 PUSH2 0x66 SWAP2 SWAP1 PUSH2 0x2A4 JUMP JUMPDEST PUSH2 0xDF JUMP JUMPDEST STOP JUMPDEST CALLVALUE DUP1 ISZERO PUSH2 0x79 JUMPI PUSH1 0x0 DUP1 REVERT JUMPDEST POP PUSH2 0x82 PUSH2 0x13E JUMP JUMPDEST PUSH1 0x40 MLOAD PUSH2 0x8F SWAP2 SWAP1 PUSH2 0x2EA JUMP JUMPDEST PUSH1 0x40 MLOAD DUP1 SWAP2 SUB SWAP1 RETURN JUMPDEST CALLVALUE DUP1 ISZERO PUSH2 0xA4 JUMPI PUSH1 0x0 DUP1 REVERT JUMPDEST POP PUSH2 0xBF PUSH1 0x4 DUP1 CALLDATASIZE SUB DUP2 ADD SWAP1 PUSH2 0xBA SWAP2 SWAP1 PUSH2 0x343 JUMP JUMPDEST PUSH2 0x146 JUMP JUMPDEST PUSH1 0x40 MLOAD PUSH2 0xCC SWAP2 SWAP1 PUSH2 0x2EA JUMP JUMPDEST PUSH1 0x40 MLOAD DUP1 SWAP2 SUB SWAP1 RETURN JUMPDEST PUSH2 0xDD PUSH2 0x15E JUMP JUMPDEST STOP JUMPDEST PUSH1 0x0 PUSH2 0xE9 PUSH2 0x1B5 JUMP JUMPDEST SWAP1 POP PUSH2 0xF3 PUSH2 0x1FB JUMP JUMPDEST DUP2 PUSH20 0xFFFFFFFFFFFFFFFFFFFFFFFFFFFFFFFFFFFFFFFF AND PUSH2 0x8FC DUP3 SWAP1 DUP2 ISZERO MUL SWAP1 PUSH1 0x40 MLOAD PUSH1 0x0 PUSH1 0x40 MLOAD DUP1 DUP4 SUB DUP2 DUP6 DUP9 DUP9 CALL SWAP4 POP POP POP POP ISZERO DUP1 ISZERO PUSH2 0x139 JUMPI RETURNDATASIZE PUSH1 0x0 DUP1 RETURNDATACOPY RETURNDATASIZE PUSH1 0x0 REVERT JUMPDEST POP POP POP JUMP JUMPDEST PUSH1 0x0 SELFBALANCE SWAP1 POP SWAP1 JUMP JUMPDEST PUSH1 0x0 PUSH1 0x20 MSTORE DUP1 PUSH1 0x0 MSTORE PUSH1 0x40 PUSH1 0x0 KECCAK256 PUSH1 0x0 SWAP2 POP SWAP1 POP SLOAD DUP2 JUMP JUMPDEST CALLVALUE PUSH1 0x0 DUP1 CALLER PUSH20 0xFFFFFFFFFFFFFFFFFFFFFFFFFFFFFFFFFFFFFFFF AND PUSH20 0xFFFFFFFFFFFFFFFFFFFFFFFFFFFFFFFFFFFFFFFF AND DUP2 MSTORE PUSH1 0x20 ADD SWAP1 DUP2 MSTORE PUSH1 0x20 ADD PUSH1 0x0 KECCAK256 PUSH1 0x0 DUP3 DUP3 SLOAD PUSH2 0x1AC SWAP2 SWAP1 PUSH2 0x39F JUMP JUMPDEST SWAP3 POP POP DUP2 SWAP1 SSTORE POP JUMP JUMPDEST PUSH1 0x0 DUP1 PUSH1 0x0 CALLER PUSH20 0xFFFFFFFFFFFFFFFFFFFFFFFFFFFFFFFFFFFFFFFF AND PUSH20 0xFFFFFFFFFFFFFFFFFFFFFFFFFFFFFFFFFFFFFFFF AND DUP2 MSTORE PUSH1 0x20 ADD SWAP1 DUP2 MSTORE PUSH1 0x20 ADD PUSH1 0x0 KECCAK256 SLOAD SWAP1 POP SWAP1 JUMP JUMPDEST PUSH1 0x0 DUP1 PUSH1 0x0 CALLER PUSH20 0xFFFFFFFFFFFFFFFFFFFFFFFFFFFFFFFFFFFFFFFF AND PUSH20 0xFFFFFFFFFFFFFFFFFFFFFFFFFFFFFFFFFFFFFFFF AND DUP2 MSTORE PUSH1 0x20 ADD SWAP1 DUP2 MSTORE PUSH1 0x20 ADD PUSH1 0x0 KECCAK256 DUP2 SWAP1 SSTORE POP JUMP JUMPDEST PUSH1 0x0 DUP1 REVERT JUMPDEST PUSH1 0x0 PUSH20 0xFFFFFFFFFFFFFFFFFFFFFFFFFFFFFFFFFFFFFFFF DUP3 AND SWAP1 POP SWAP2 SWAP1 POP JUMP JUMPDEST PUSH1 0x0 PUSH2 0x271 DUP3 PUSH2 0x246 JUMP JUMPDEST SWAP1 POP SWAP2 SWAP1 POP JUMP JUMPDEST PUSH2 0x281 DUP2 PUSH2 0x266 JUMP JUMPDEST DUP2 EQ PUSH2 0x28C JUMPI PUSH1 0x0 DUP1 REVERT JUMPDEST POP JUMP JUMPDEST PUSH1 0x0 DUP2 CALLDATALOAD SWAP1 POP PUSH2 0x29E DUP2 PUSH2 0x278 JUMP JUMPDEST SWAP3 SWAP2 POP POP JUMP JUMPDEST PUSH1 0x0 PUSH1 0x20 DUP3 DUP5 SUB SLT ISZERO PUSH2 0x2BA JUMPI PUSH2 0x2B9 PUSH2 0x241 JUMP JUMPDEST JUMPDEST PUSH1 0x0 PUSH2 0x2C8 DUP5 DUP3 DUP6 ADD PUSH2 0x28F JUMP JUMPDEST SWAP2 POP POP SWAP3 SWAP2 POP POP JUMP JUMPDEST PUSH1 0x0 DUP2 SWAP1 POP SWAP2 SWAP1 POP JUMP JUMPDEST PUSH2 0x2E4 DUP2 PUSH2 0x2D1 JUMP JUMPDEST DUP3 MSTORE POP POP JUMP JUMPDEST PUSH1 0x0 PUSH1 0x20 DUP3 ADD SWAP1 POP PUSH2 0x2FF PUSH1 0x0 DUP4 ADD DUP5 PUSH2 0x2DB JUMP JUMPDEST SWAP3 SWAP2 POP POP JUMP JUMPDEST PUSH1 0x0 PUSH2 0x310 DUP3 PUSH2 0x246 JUMP JUMPDEST SWAP1 POP SWAP2 SWAP1 POP JUMP JUMPDEST PUSH2 0x320 DUP2 PUSH2 0x305 JUMP JUMPDEST DUP2 EQ PUSH2 0x32B JUMPI PUSH1 0x0 DUP1 REVERT JUMPDEST POP JUMP JUMPDEST PUSH1 0x0 DUP2 CALLDATALOAD SWAP1 POP PUSH2 0x33D DUP2 PUSH2 0x317 JUMP JUMPDEST SWAP3 SWAP2 POP POP JUMP JUMPDEST PUSH1 0x0 PUSH1 0x20 DUP3 DUP5 SUB SLT ISZERO PUSH2 0x359 JUMPI PUSH2 0x358 PUSH2 0x241 JUMP JUMPDEST JUMPDEST PUSH1 0x0 PUSH2 0x367 DUP5 DUP3 DUP6 ADD PUSH2 0x32E JUMP JUMPDEST SWAP2 POP POP SWAP3 SWAP2 POP POP JUMP JUMPDEST PUSH32 0x4E487B7100000000000000000000000000000000000000000000000000000000 PUSH1 0x0 MSTORE PUSH1 0x11 PUSH1 0x4 MSTORE PUSH1 0x24 PUSH1 0x0 REVERT JUMPDEST PUSH1 0x0 PUSH2 0x3AA DUP3 PUSH2 0x2D1 JUMP JUMPDEST SWAP2 POP PUSH2 0x3B5 DUP4 PUSH2 0x2D1 JUMP JUMPDEST SWAP3 POP DUP3 PUSH32 0xFFFFFFFFFFFFFFFFFFFFFFFFFFFFFFFFFFFFFFFFFFFFFFFFFFFFFFFFFFFFFFFF SUB DUP3 GT ISZERO PUSH2 0x3EA JUMPI PUSH2 0x3E9 PUSH2 0x370 JUMP JUMPDEST JUMPDEST DUP3 DUP3 ADD SWAP1 POP SWAP3 SWAP2 POP POP JUMP INVALID LOG2 PUSH5 0x6970667358 0x22 SLT KECCAK256 PUSH9 0xD32B9A79075E90AB67 RETURNDATACOPY 0xEA 0xDF MSIZE DUP9 0xAC 0xFC 0xD1 MSTORE8 0x49 DUP3 0xBC GAS PUSH9 0xBC4A677FF57FC66064 PUSH20 0x6F6C634300080E00330000000000000000000000 "
				},
				"gasEstimates": {
					"creation": {
						"codeDepositCost": "213400",
						"executionCost": "257",
						"totalCost": "213657"
					},
					"external": {
						"balances(address)": "2836",
						"getBalance()": "339",
						"sendMoney()": "infinite",
						"withdrawAllMoney(address)": "infinite"
					},
					"internal": {
						"clearAccountBalance()": "5118",
						"getAccountBalance()": "2218"
					}
				},
				"methodIdentifiers": {
					"balances(address)": "27e235e3",
					"getBalance()": "12065fe0",
					"sendMoney()": "cbedbf5a",
					"withdrawAllMoney(address)": "0adec93c"
				}
			},
			"storageLayout": {
				"storage": [
					{
						"astId": 5,
						"contract": "contracts/ExampleMappingWithdraws.sol:ExampleMappingWithdraws",
						"label": "balances",
						"offset": 0,
						"slot": "0",
						"type": "t_mapping(t_address,t_uint256)"
					}
				],
				"types": {
					"t_address": {
						"encoding": "inplace",
						"label": "address",
						"numberOfBytes": "20"
					},
					"t_mapping(t_address,t_uint256)": {
						"encoding": "mapping",
						"key": "t_address",
						"label": "mapping(address => uint256)",
						"numberOfBytes": "32",
						"value": "t_uint256"
					},
					"t_uint256": {
						"encoding": "inplace",
						"label": "uint256",
						"numberOfBytes": "32"
					}
				}
			},
			"userdoc": {
				"kind": "user",
				"methods": {},
				"version": 1
			}
		}
	}
}