{
	"contracts/ExampleExceptionRequire.sol": {
		"ExampleExceptionRequire": {
			"abi": [
				{
					"inputs": [
						{
							"internalType": "address",
							"name": "",
							"type": "address"
						}
					],
					"name": "balances",
					"outputs": [
						{
							"internalType": "uint256",
							"name": "totalBalance",
							"type": "uint256"
						},
						{
							"internalType": "uint256",
							"name": "numDeposits",
							"type": "uint256"
						},
						{
							"internalType": "uint256",
							"name": "numWithdrawals",
							"type": "uint256"
						}
					],
					"stateMutability": "view",
					"type": "function"
				},
				{
					"inputs": [],
					"name": "deposityMoney",
					"outputs": [],
					"stateMutability": "payable",
					"type": "function"
				},
				{
					"inputs": [
						{
							"internalType": "address",
							"name": "from",
							"type": "address"
						},
						{
							"internalType": "uint256",
							"name": "depositIndex",
							"type": "uint256"
						}
					],
					"name": "getDeposityNum",
					"outputs": [
						{
							"components": [
								{
									"internalType": "uint256",
									"name": "amount",
									"type": "uint256"
								},
								{
									"internalType": "uint256",
									"name": "timestamp",
									"type": "uint256"
								}
							],
							"internalType": "struct ExampleExceptionRequire.Transaction",
							"name": "",
							"type": "tuple"
						}
					],
					"stateMutability": "view",
					"type": "function"
				},
				{
					"inputs": [
						{
							"internalType": "address payable",
							"name": "to",
							"type": "address"
						},
						{
							"internalType": "uint256",
							"name": "amount",
							"type": "uint256"
						}
					],
					"name": "withdrawMoney",
					"outputs": [],
					"stateMutability": "nonpayable",
					"type": "function"
				}
			],
			"devdoc": {
				"kind": "dev",
				"methods": {},
				"version": 1
			},
			"evm": {
				"assembly": "    /* \"contracts/ExampleExceptionRequire.sol\":57:1396  contract ExampleExceptionRequire {... */\n  mstore(0x40, 0x80)\n  callvalue\n  dup1\n  iszero\n  tag_1\n  jumpi\n  0x00\n  dup1\n  revert\ntag_1:\n  pop\n  dataSize(sub_0)\n  dup1\n  dataOffset(sub_0)\n  0x00\n  codecopy\n  0x00\n  return\nstop\n\nsub_0: assembly {\n        /* \"contracts/ExampleExceptionRequire.sol\":57:1396  contract ExampleExceptionRequire {... */\n      mstore(0x40, 0x80)\n      jumpi(tag_1, lt(calldatasize, 0x04))\n      shr(0xe0, calldataload(0x00))\n      dup1\n      0x1d282773\n      eq\n      tag_2\n      jumpi\n      dup1\n      0x27e235e3\n      eq\n      tag_3\n      jumpi\n      dup1\n      0xe8dc8a18\n      eq\n      tag_4\n      jumpi\n      dup1\n      0xf274c897\n      eq\n      tag_5\n      jumpi\n    tag_1:\n      0x00\n      dup1\n      revert\n        /* \"contracts/ExampleExceptionRequire.sol\":599:909  function deposityMoney() public payable {... */\n    tag_2:\n      tag_6\n      tag_7\n      jump\t// in\n    tag_6:\n      stop\n        /* \"contracts/ExampleExceptionRequire.sol\":380:423  mapping(address => Balance) public balances */\n    tag_3:\n      callvalue\n      dup1\n      iszero\n      tag_8\n      jumpi\n      0x00\n      dup1\n      revert\n    tag_8:\n      pop\n      tag_9\n      0x04\n      dup1\n      calldatasize\n      sub\n      dup2\n      add\n      swap1\n      tag_10\n      swap2\n      swap1\n      tag_11\n      jump\t// in\n    tag_10:\n      tag_12\n      jump\t// in\n    tag_9:\n      mload(0x40)\n      tag_13\n      swap4\n      swap3\n      swap2\n      swap1\n      tag_14\n      jump\t// in\n    tag_13:\n      mload(0x40)\n      dup1\n      swap2\n      sub\n      swap1\n      return\n        /* \"contracts/ExampleExceptionRequire.sol\":430:589  function getDeposityNum(address from, uint depositIndex) public view returns(Transaction  memory) {... */\n    tag_4:\n      callvalue\n      dup1\n      iszero\n      tag_15\n      jumpi\n      0x00\n      dup1\n      revert\n    tag_15:\n      pop\n      tag_16\n      0x04\n      dup1\n      calldatasize\n      sub\n      dup2\n      add\n      swap1\n      tag_17\n      swap2\n      swap1\n      tag_18\n      jump\t// in\n    tag_17:\n      tag_19\n      jump\t// in\n    tag_16:\n      mload(0x40)\n      tag_20\n      swap2\n      swap1\n      tag_21\n      jump\t// in\n    tag_20:\n      mload(0x40)\n      dup1\n      swap2\n      sub\n      swap1\n      return\n        /* \"contracts/ExampleExceptionRequire.sol\":915:1394  function withdrawMoney(address payable to, uint amount) public {... */\n    tag_5:\n      callvalue\n      dup1\n      iszero\n      tag_22\n      jumpi\n      0x00\n      dup1\n      revert\n    tag_22:\n      pop\n      tag_23\n      0x04\n      dup1\n      calldatasize\n      sub\n      dup2\n      add\n      swap1\n      tag_24\n      swap2\n      swap1\n      tag_25\n      jump\t// in\n    tag_24:\n      tag_26\n      jump\t// in\n    tag_23:\n      stop\n        /* \"contracts/ExampleExceptionRequire.sol\":599:909  function deposityMoney() public payable {... */\n    tag_7:\n        /* \"contracts/ExampleExceptionRequire.sol\":686:695  msg.value */\n      callvalue\n        /* \"contracts/ExampleExceptionRequire.sol\":649:657  balances */\n      0x00\n        /* \"contracts/ExampleExceptionRequire.sol\":649:669  balances[msg.sender] */\n      dup1\n        /* \"contracts/ExampleExceptionRequire.sol\":658:668  msg.sender */\n      caller\n        /* \"contracts/ExampleExceptionRequire.sol\":649:669  balances[msg.sender] */\n      0xffffffffffffffffffffffffffffffffffffffff\n      and\n      0xffffffffffffffffffffffffffffffffffffffff\n      and\n      dup2\n      mstore\n      0x20\n      add\n      swap1\n      dup2\n      mstore\n      0x20\n      add\n      0x00\n      keccak256\n        /* \"contracts/ExampleExceptionRequire.sol\":649:682  balances[msg.sender].totalBalance */\n      0x00\n      add\n      0x00\n        /* \"contracts/ExampleExceptionRequire.sol\":649:695  balances[msg.sender].totalBalance += msg.value */\n      dup3\n      dup3\n      sload\n      tag_28\n      swap2\n      swap1\n      tag_29\n      jump\t// in\n    tag_28:\n      swap3\n      pop\n      pop\n      dup2\n      swap1\n      sstore\n      pop\n        /* \"contracts/ExampleExceptionRequire.sol\":705:731  Transaction memory deposit */\n      0x00\n        /* \"contracts/ExampleExceptionRequire.sol\":734:773  Transaction(msg.value, block.timestamp) */\n      mload(0x40)\n      dup1\n      0x40\n      add\n      0x40\n      mstore\n      dup1\n        /* \"contracts/ExampleExceptionRequire.sol\":746:755  msg.value */\n      callvalue\n        /* \"contracts/ExampleExceptionRequire.sol\":734:773  Transaction(msg.value, block.timestamp) */\n      dup2\n      mstore\n      0x20\n      add\n        /* \"contracts/ExampleExceptionRequire.sol\":757:772  block.timestamp */\n      timestamp\n        /* \"contracts/ExampleExceptionRequire.sol\":734:773  Transaction(msg.value, block.timestamp) */\n      dup2\n      mstore\n      pop\n        /* \"contracts/ExampleExceptionRequire.sol\":705:773  Transaction memory deposit = Transaction(msg.value, block.timestamp) */\n      swap1\n      pop\n        /* \"contracts/ExampleExceptionRequire.sol\":850:857  deposit */\n      dup1\n        /* \"contracts/ExampleExceptionRequire.sol\":784:792  balances */\n      0x00\n        /* \"contracts/ExampleExceptionRequire.sol\":784:804  balances[msg.sender] */\n      dup1\n        /* \"contracts/ExampleExceptionRequire.sol\":793:803  msg.sender */\n      caller\n        /* \"contracts/ExampleExceptionRequire.sol\":784:804  balances[msg.sender] */\n      0xffffffffffffffffffffffffffffffffffffffff\n      and\n      0xffffffffffffffffffffffffffffffffffffffff\n      and\n      dup2\n      mstore\n      0x20\n      add\n      swap1\n      dup2\n      mstore\n      0x20\n      add\n      0x00\n      keccak256\n        /* \"contracts/ExampleExceptionRequire.sol\":784:813  balances[msg.sender].deposits */\n      0x02\n      add\n        /* \"contracts/ExampleExceptionRequire.sol\":784:847  balances[msg.sender].deposits[balances[msg.sender].numDeposits] */\n      0x00\n        /* \"contracts/ExampleExceptionRequire.sol\":814:822  balances */\n      dup1\n        /* \"contracts/ExampleExceptionRequire.sol\":814:834  balances[msg.sender] */\n      0x00\n        /* \"contracts/ExampleExceptionRequire.sol\":823:833  msg.sender */\n      caller\n        /* \"contracts/ExampleExceptionRequire.sol\":814:834  balances[msg.sender] */\n      0xffffffffffffffffffffffffffffffffffffffff\n      and\n      0xffffffffffffffffffffffffffffffffffffffff\n      and\n      dup2\n      mstore\n      0x20\n      add\n      swap1\n      dup2\n      mstore\n      0x20\n      add\n      0x00\n      keccak256\n        /* \"contracts/ExampleExceptionRequire.sol\":814:846  balances[msg.sender].numDeposits */\n      0x01\n      add\n      sload\n        /* \"contracts/ExampleExceptionRequire.sol\":784:847  balances[msg.sender].deposits[balances[msg.sender].numDeposits] */\n      dup2\n      mstore\n      0x20\n      add\n      swap1\n      dup2\n      mstore\n      0x20\n      add\n      0x00\n      keccak256\n        /* \"contracts/ExampleExceptionRequire.sol\":784:857  balances[msg.sender].deposits[balances[msg.sender].numDeposits] = deposit */\n      0x00\n      dup3\n      add\n      mload\n      dup2\n      0x00\n      add\n      sstore\n      0x20\n      dup3\n      add\n      mload\n      dup2\n      0x01\n      add\n      sstore\n      swap1\n      pop\n      pop\n        /* \"contracts/ExampleExceptionRequire.sol\":867:875  balances */\n      0x00\n        /* \"contracts/ExampleExceptionRequire.sol\":867:887  balances[msg.sender] */\n      dup1\n        /* \"contracts/ExampleExceptionRequire.sol\":876:886  msg.sender */\n      caller\n        /* \"contracts/ExampleExceptionRequire.sol\":867:887  balances[msg.sender] */\n      0xffffffffffffffffffffffffffffffffffffffff\n      and\n      0xffffffffffffffffffffffffffffffffffffffff\n      and\n      dup2\n      mstore\n      0x20\n      add\n      swap1\n      dup2\n      mstore\n      0x20\n      add\n      0x00\n      keccak256\n        /* \"contracts/ExampleExceptionRequire.sol\":867:899  balances[msg.sender].numDeposits */\n      0x01\n      add\n      0x00\n        /* \"contracts/ExampleExceptionRequire.sol\":867:901  balances[msg.sender].numDeposits++ */\n      dup2\n      sload\n      dup1\n      swap3\n      swap2\n      swap1\n      tag_30\n      swap1\n      tag_31\n      jump\t// in\n    tag_30:\n      swap2\n      swap1\n      pop\n      sstore\n      pop\n        /* \"contracts/ExampleExceptionRequire.sol\":639:909  {... */\n      pop\n        /* \"contracts/ExampleExceptionRequire.sol\":599:909  function deposityMoney() public payable {... */\n      jump\t// out\n        /* \"contracts/ExampleExceptionRequire.sol\":380:423  mapping(address => Balance) public balances */\n    tag_12:\n      mstore(0x20, 0x00)\n      dup1\n      0x00\n      mstore\n      keccak256(0x00, 0x40)\n      0x00\n      swap2\n      pop\n      swap1\n      pop\n      dup1\n      0x00\n      add\n      sload\n      swap1\n      dup1\n      0x01\n      add\n      sload\n      swap1\n      dup1\n      0x03\n      add\n      sload\n      swap1\n      pop\n      dup4\n      jump\t// out\n        /* \"contracts/ExampleExceptionRequire.sol\":430:589  function getDeposityNum(address from, uint depositIndex) public view returns(Transaction  memory) {... */\n    tag_19:\n        /* \"contracts/ExampleExceptionRequire.sol\":507:526  Transaction  memory */\n      tag_32\n      tag_33\n      jump\t// in\n    tag_32:\n        /* \"contracts/ExampleExceptionRequire.sol\":545:553  balances */\n      0x00\n        /* \"contracts/ExampleExceptionRequire.sol\":545:559  balances[from] */\n      dup1\n        /* \"contracts/ExampleExceptionRequire.sol\":554:558  from */\n      dup5\n        /* \"contracts/ExampleExceptionRequire.sol\":545:559  balances[from] */\n      0xffffffffffffffffffffffffffffffffffffffff\n      and\n      0xffffffffffffffffffffffffffffffffffffffff\n      and\n      dup2\n      mstore\n      0x20\n      add\n      swap1\n      dup2\n      mstore\n      0x20\n      add\n      0x00\n      keccak256\n        /* \"contracts/ExampleExceptionRequire.sol\":545:568  balances[from].deposits */\n      0x02\n      add\n        /* \"contracts/ExampleExceptionRequire.sol\":545:582  balances[from].deposits[depositIndex] */\n      0x00\n        /* \"contracts/ExampleExceptionRequire.sol\":569:581  depositIndex */\n      dup4\n        /* \"contracts/ExampleExceptionRequire.sol\":545:582  balances[from].deposits[depositIndex] */\n      dup2\n      mstore\n      0x20\n      add\n      swap1\n      dup2\n      mstore\n      0x20\n      add\n      0x00\n      keccak256\n        /* \"contracts/ExampleExceptionRequire.sol\":538:582  return balances[from].deposits[depositIndex] */\n      mload(0x40)\n      dup1\n      0x40\n      add\n      0x40\n      mstore\n      swap1\n      dup2\n      0x00\n      dup3\n      add\n      sload\n      dup2\n      mstore\n      0x20\n      add\n      0x01\n      dup3\n      add\n      sload\n      dup2\n      mstore\n      pop\n      pop\n      swap1\n      pop\n        /* \"contracts/ExampleExceptionRequire.sol\":430:589  function getDeposityNum(address from, uint depositIndex) public view returns(Transaction  memory) {... */\n      swap3\n      swap2\n      pop\n      pop\n      jump\t// out\n        /* \"contracts/ExampleExceptionRequire.sol\":915:1394  function withdrawMoney(address payable to, uint amount) public {... */\n    tag_26:\n        /* \"contracts/ExampleExceptionRequire.sol\":1033:1039  amount */\n      dup1\n        /* \"contracts/ExampleExceptionRequire.sol\":996:1004  balances */\n      0x00\n        /* \"contracts/ExampleExceptionRequire.sol\":996:1016  balances[msg.sender] */\n      dup1\n        /* \"contracts/ExampleExceptionRequire.sol\":1005:1015  msg.sender */\n      caller\n        /* \"contracts/ExampleExceptionRequire.sol\":996:1016  balances[msg.sender] */\n      0xffffffffffffffffffffffffffffffffffffffff\n      and\n      0xffffffffffffffffffffffffffffffffffffffff\n      and\n      dup2\n      mstore\n      0x20\n      add\n      swap1\n      dup2\n      mstore\n      0x20\n      add\n      0x00\n      keccak256\n        /* \"contracts/ExampleExceptionRequire.sol\":996:1029  balances[msg.sender].totalBalance */\n      0x00\n      add\n      sload\n        /* \"contracts/ExampleExceptionRequire.sol\":996:1039  balances[msg.sender].totalBalance >= amount */\n      lt\n      iszero\n        /* \"contracts/ExampleExceptionRequire.sol\":988:1086  require(balances[msg.sender].totalBalance >= amount, \"Failed to withdrawal. Try a smaller amount\") */\n      tag_36\n      jumpi\n      mload(0x40)\n      0x08c379a000000000000000000000000000000000000000000000000000000000\n      dup2\n      mstore\n      0x04\n      add\n      tag_37\n      swap1\n      tag_38\n      jump\t// in\n    tag_37:\n      mload(0x40)\n      dup1\n      swap2\n      sub\n      swap1\n      revert\n    tag_36:\n        /* \"contracts/ExampleExceptionRequire.sol\":1133:1139  amount */\n      dup1\n        /* \"contracts/ExampleExceptionRequire.sol\":1096:1104  balances */\n      0x00\n        /* \"contracts/ExampleExceptionRequire.sol\":1096:1116  balances[msg.sender] */\n      dup1\n        /* \"contracts/ExampleExceptionRequire.sol\":1105:1115  msg.sender */\n      caller\n        /* \"contracts/ExampleExceptionRequire.sol\":1096:1116  balances[msg.sender] */\n      0xffffffffffffffffffffffffffffffffffffffff\n      and\n      0xffffffffffffffffffffffffffffffffffffffff\n      and\n      dup2\n      mstore\n      0x20\n      add\n      swap1\n      dup2\n      mstore\n      0x20\n      add\n      0x00\n      keccak256\n        /* \"contracts/ExampleExceptionRequire.sol\":1096:1129  balances[msg.sender].totalBalance */\n      0x00\n      add\n      0x00\n        /* \"contracts/ExampleExceptionRequire.sol\":1096:1139  balances[msg.sender].totalBalance -= amount */\n      dup3\n      dup3\n      sload\n      tag_39\n      swap2\n      swap1\n      tag_40\n      jump\t// in\n    tag_39:\n      swap3\n      pop\n      pop\n      dup2\n      swap1\n      sstore\n      pop\n        /* \"contracts/ExampleExceptionRequire.sol\":1149:1178  Transaction memory withdrawal */\n      0x00\n        /* \"contracts/ExampleExceptionRequire.sol\":1181:1217  Transaction(amount, block.timestamp) */\n      mload(0x40)\n      dup1\n      0x40\n      add\n      0x40\n      mstore\n      dup1\n        /* \"contracts/ExampleExceptionRequire.sol\":1193:1199  amount */\n      dup4\n        /* \"contracts/ExampleExceptionRequire.sol\":1181:1217  Transaction(amount, block.timestamp) */\n      dup2\n      mstore\n      0x20\n      add\n        /* \"contracts/ExampleExceptionRequire.sol\":1201:1216  block.timestamp */\n      timestamp\n        /* \"contracts/ExampleExceptionRequire.sol\":1181:1217  Transaction(amount, block.timestamp) */\n      dup2\n      mstore\n      pop\n        /* \"contracts/ExampleExceptionRequire.sol\":1149:1217  Transaction memory withdrawal = Transaction(amount, block.timestamp) */\n      swap1\n      pop\n        /* \"contracts/ExampleExceptionRequire.sol\":1300:1310  withdrawal */\n      dup1\n        /* \"contracts/ExampleExceptionRequire.sol\":1228:1236  balances */\n      0x00\n        /* \"contracts/ExampleExceptionRequire.sol\":1228:1248  balances[msg.sender] */\n      dup1\n        /* \"contracts/ExampleExceptionRequire.sol\":1237:1247  msg.sender */\n      caller\n        /* \"contracts/ExampleExceptionRequire.sol\":1228:1248  balances[msg.sender] */\n      0xffffffffffffffffffffffffffffffffffffffff\n      and\n      0xffffffffffffffffffffffffffffffffffffffff\n      and\n      dup2\n      mstore\n      0x20\n      add\n      swap1\n      dup2\n      mstore\n      0x20\n      add\n      0x00\n      keccak256\n        /* \"contracts/ExampleExceptionRequire.sol\":1228:1260  balances[msg.sender].withdrawals */\n      0x04\n      add\n        /* \"contracts/ExampleExceptionRequire.sol\":1228:1297  balances[msg.sender].withdrawals[balances[msg.sender].numWithdrawals] */\n      0x00\n        /* \"contracts/ExampleExceptionRequire.sol\":1261:1269  balances */\n      dup1\n        /* \"contracts/ExampleExceptionRequire.sol\":1261:1281  balances[msg.sender] */\n      0x00\n        /* \"contracts/ExampleExceptionRequire.sol\":1270:1280  msg.sender */\n      caller\n        /* \"contracts/ExampleExceptionRequire.sol\":1261:1281  balances[msg.sender] */\n      0xffffffffffffffffffffffffffffffffffffffff\n      and\n      0xffffffffffffffffffffffffffffffffffffffff\n      and\n      dup2\n      mstore\n      0x20\n      add\n      swap1\n      dup2\n      mstore\n      0x20\n      add\n      0x00\n      keccak256\n        /* \"contracts/ExampleExceptionRequire.sol\":1261:1296  balances[msg.sender].numWithdrawals */\n      0x03\n      add\n      sload\n        /* \"contracts/ExampleExceptionRequire.sol\":1228:1297  balances[msg.sender].withdrawals[balances[msg.sender].numWithdrawals] */\n      dup2\n      mstore\n      0x20\n      add\n      swap1\n      dup2\n      mstore\n      0x20\n      add\n      0x00\n      keccak256\n        /* \"contracts/ExampleExceptionRequire.sol\":1228:1310  balances[msg.sender].withdrawals[balances[msg.sender].numWithdrawals] = withdrawal */\n      0x00\n      dup3\n      add\n      mload\n      dup2\n      0x00\n      add\n      sstore\n      0x20\n      dup3\n      add\n      mload\n      dup2\n      0x01\n      add\n      sstore\n      swap1\n      pop\n      pop\n        /* \"contracts/ExampleExceptionRequire.sol\":1320:1328  balances */\n      0x00\n        /* \"contracts/ExampleExceptionRequire.sol\":1320:1340  balances[msg.sender] */\n      dup1\n        /* \"contracts/ExampleExceptionRequire.sol\":1329:1339  msg.sender */\n      caller\n        /* \"contracts/ExampleExceptionRequire.sol\":1320:1340  balances[msg.sender] */\n      0xffffffffffffffffffffffffffffffffffffffff\n      and\n      0xffffffffffffffffffffffffffffffffffffffff\n      and\n      dup2\n      mstore\n      0x20\n      add\n      swap1\n      dup2\n      mstore\n      0x20\n      add\n      0x00\n      keccak256\n        /* \"contracts/ExampleExceptionRequire.sol\":1320:1355  balances[msg.sender].numWithdrawals */\n      0x03\n      add\n      0x00\n        /* \"contracts/ExampleExceptionRequire.sol\":1320:1357  balances[msg.sender].numWithdrawals++ */\n      dup2\n      sload\n      dup1\n      swap3\n      swap2\n      swap1\n      tag_41\n      swap1\n      tag_31\n      jump\t// in\n    tag_41:\n      swap2\n      swap1\n      pop\n      sstore\n      pop\n        /* \"contracts/ExampleExceptionRequire.sol\":1368:1370  to */\n      dup3\n        /* \"contracts/ExampleExceptionRequire.sol\":1368:1379  to.transfer */\n      0xffffffffffffffffffffffffffffffffffffffff\n      and\n        /* \"contracts/ExampleExceptionRequire.sol\":1368:1387  to.transfer(amount) */\n      0x08fc\n        /* \"contracts/ExampleExceptionRequire.sol\":1380:1386  amount */\n      dup4\n        /* \"contracts/ExampleExceptionRequire.sol\":1368:1387  to.transfer(amount) */\n      swap1\n      dup2\n      iszero\n      mul\n      swap1\n      mload(0x40)\n      0x00\n      mload(0x40)\n      dup1\n      dup4\n      sub\n      dup2\n      dup6\n      dup9\n      dup9\n      call\n      swap4\n      pop\n      pop\n      pop\n      pop\n      iszero\n      dup1\n      iszero\n      tag_43\n      jumpi\n      returndatasize\n      0x00\n      dup1\n      returndatacopy\n      revert(0x00, returndatasize)\n    tag_43:\n      pop\n        /* \"contracts/ExampleExceptionRequire.sol\":978:1394  {... */\n      pop\n        /* \"contracts/ExampleExceptionRequire.sol\":915:1394  function withdrawMoney(address payable to, uint amount) public {... */\n      pop\n      pop\n      jump\t// out\n    tag_33:\n      mload(0x40)\n      dup1\n      0x40\n      add\n      0x40\n      mstore\n      dup1\n      0x00\n      dup2\n      mstore\n      0x20\n      add\n      0x00\n      dup2\n      mstore\n      pop\n      swap1\n      jump\t// out\n        /* \"#utility.yul\":88:205   */\n    tag_45:\n        /* \"#utility.yul\":197:198   */\n      0x00\n        /* \"#utility.yul\":194:195   */\n      dup1\n        /* \"#utility.yul\":187:199   */\n      revert\n        /* \"#utility.yul\":334:460   */\n    tag_47:\n        /* \"#utility.yul\":371:378   */\n      0x00\n        /* \"#utility.yul\":411:453   */\n      0xffffffffffffffffffffffffffffffffffffffff\n        /* \"#utility.yul\":404:409   */\n      dup3\n        /* \"#utility.yul\":400:454   */\n      and\n        /* \"#utility.yul\":389:454   */\n      swap1\n      pop\n        /* \"#utility.yul\":334:460   */\n      swap2\n      swap1\n      pop\n      jump\t// out\n        /* \"#utility.yul\":466:562   */\n    tag_48:\n        /* \"#utility.yul\":503:510   */\n      0x00\n        /* \"#utility.yul\":532:556   */\n      tag_70\n        /* \"#utility.yul\":550:555   */\n      dup3\n        /* \"#utility.yul\":532:556   */\n      tag_47\n      jump\t// in\n    tag_70:\n        /* \"#utility.yul\":521:556   */\n      swap1\n      pop\n        /* \"#utility.yul\":466:562   */\n      swap2\n      swap1\n      pop\n      jump\t// out\n        /* \"#utility.yul\":568:690   */\n    tag_49:\n        /* \"#utility.yul\":641:665   */\n      tag_72\n        /* \"#utility.yul\":659:664   */\n      dup2\n        /* \"#utility.yul\":641:665   */\n      tag_48\n      jump\t// in\n    tag_72:\n        /* \"#utility.yul\":634:639   */\n      dup2\n        /* \"#utility.yul\":631:666   */\n      eq\n        /* \"#utility.yul\":621:684   */\n      tag_73\n      jumpi\n        /* \"#utility.yul\":680:681   */\n      0x00\n        /* \"#utility.yul\":677:678   */\n      dup1\n        /* \"#utility.yul\":670:682   */\n      revert\n        /* \"#utility.yul\":621:684   */\n    tag_73:\n        /* \"#utility.yul\":568:690   */\n      pop\n      jump\t// out\n        /* \"#utility.yul\":696:835   */\n    tag_50:\n        /* \"#utility.yul\":742:747   */\n      0x00\n        /* \"#utility.yul\":780:786   */\n      dup2\n        /* \"#utility.yul\":767:787   */\n      calldataload\n        /* \"#utility.yul\":758:787   */\n      swap1\n      pop\n        /* \"#utility.yul\":796:829   */\n      tag_75\n        /* \"#utility.yul\":823:828   */\n      dup2\n        /* \"#utility.yul\":796:829   */\n      tag_49\n      jump\t// in\n    tag_75:\n        /* \"#utility.yul\":696:835   */\n      swap3\n      swap2\n      pop\n      pop\n      jump\t// out\n        /* \"#utility.yul\":841:1170   */\n    tag_11:\n        /* \"#utility.yul\":900:906   */\n      0x00\n        /* \"#utility.yul\":949:951   */\n      0x20\n        /* \"#utility.yul\":937:946   */\n      dup3\n        /* \"#utility.yul\":928:935   */\n      dup5\n        /* \"#utility.yul\":924:947   */\n      sub\n        /* \"#utility.yul\":920:952   */\n      slt\n        /* \"#utility.yul\":917:1036   */\n      iszero\n      tag_77\n      jumpi\n        /* \"#utility.yul\":955:1034   */\n      tag_78\n      tag_45\n      jump\t// in\n    tag_78:\n        /* \"#utility.yul\":917:1036   */\n    tag_77:\n        /* \"#utility.yul\":1075:1076   */\n      0x00\n        /* \"#utility.yul\":1100:1153   */\n      tag_79\n        /* \"#utility.yul\":1145:1152   */\n      dup5\n        /* \"#utility.yul\":1136:1142   */\n      dup3\n        /* \"#utility.yul\":1125:1134   */\n      dup6\n        /* \"#utility.yul\":1121:1143   */\n      add\n        /* \"#utility.yul\":1100:1153   */\n      tag_50\n      jump\t// in\n    tag_79:\n        /* \"#utility.yul\":1090:1153   */\n      swap2\n      pop\n        /* \"#utility.yul\":1046:1163   */\n      pop\n        /* \"#utility.yul\":841:1170   */\n      swap3\n      swap2\n      pop\n      pop\n      jump\t// out\n        /* \"#utility.yul\":1176:1253   */\n    tag_51:\n        /* \"#utility.yul\":1213:1220   */\n      0x00\n        /* \"#utility.yul\":1242:1247   */\n      dup2\n        /* \"#utility.yul\":1231:1247   */\n      swap1\n      pop\n        /* \"#utility.yul\":1176:1253   */\n      swap2\n      swap1\n      pop\n      jump\t// out\n        /* \"#utility.yul\":1259:1377   */\n    tag_52:\n        /* \"#utility.yul\":1346:1370   */\n      tag_82\n        /* \"#utility.yul\":1364:1369   */\n      dup2\n        /* \"#utility.yul\":1346:1370   */\n      tag_51\n      jump\t// in\n    tag_82:\n        /* \"#utility.yul\":1341:1344   */\n      dup3\n        /* \"#utility.yul\":1334:1371   */\n      mstore\n        /* \"#utility.yul\":1259:1377   */\n      pop\n      pop\n      jump\t// out\n        /* \"#utility.yul\":1383:1825   */\n    tag_14:\n        /* \"#utility.yul\":1532:1536   */\n      0x00\n        /* \"#utility.yul\":1570:1572   */\n      0x60\n        /* \"#utility.yul\":1559:1568   */\n      dup3\n        /* \"#utility.yul\":1555:1573   */\n      add\n        /* \"#utility.yul\":1547:1573   */\n      swap1\n      pop\n        /* \"#utility.yul\":1583:1654   */\n      tag_84\n        /* \"#utility.yul\":1651:1652   */\n      0x00\n        /* \"#utility.yul\":1640:1649   */\n      dup4\n        /* \"#utility.yul\":1636:1653   */\n      add\n        /* \"#utility.yul\":1627:1633   */\n      dup7\n        /* \"#utility.yul\":1583:1654   */\n      tag_52\n      jump\t// in\n    tag_84:\n        /* \"#utility.yul\":1664:1736   */\n      tag_85\n        /* \"#utility.yul\":1732:1734   */\n      0x20\n        /* \"#utility.yul\":1721:1730   */\n      dup4\n        /* \"#utility.yul\":1717:1735   */\n      add\n        /* \"#utility.yul\":1708:1714   */\n      dup6\n        /* \"#utility.yul\":1664:1736   */\n      tag_52\n      jump\t// in\n    tag_85:\n        /* \"#utility.yul\":1746:1818   */\n      tag_86\n        /* \"#utility.yul\":1814:1816   */\n      0x40\n        /* \"#utility.yul\":1803:1812   */\n      dup4\n        /* \"#utility.yul\":1799:1817   */\n      add\n        /* \"#utility.yul\":1790:1796   */\n      dup5\n        /* \"#utility.yul\":1746:1818   */\n      tag_52\n      jump\t// in\n    tag_86:\n        /* \"#utility.yul\":1383:1825   */\n      swap5\n      swap4\n      pop\n      pop\n      pop\n      pop\n      jump\t// out\n        /* \"#utility.yul\":1831:1953   */\n    tag_53:\n        /* \"#utility.yul\":1904:1928   */\n      tag_88\n        /* \"#utility.yul\":1922:1927   */\n      dup2\n        /* \"#utility.yul\":1904:1928   */\n      tag_51\n      jump\t// in\n    tag_88:\n        /* \"#utility.yul\":1897:1902   */\n      dup2\n        /* \"#utility.yul\":1894:1929   */\n      eq\n        /* \"#utility.yul\":1884:1947   */\n      tag_89\n      jumpi\n        /* \"#utility.yul\":1943:1944   */\n      0x00\n        /* \"#utility.yul\":1940:1941   */\n      dup1\n        /* \"#utility.yul\":1933:1945   */\n      revert\n        /* \"#utility.yul\":1884:1947   */\n    tag_89:\n        /* \"#utility.yul\":1831:1953   */\n      pop\n      jump\t// out\n        /* \"#utility.yul\":1959:2098   */\n    tag_54:\n        /* \"#utility.yul\":2005:2010   */\n      0x00\n        /* \"#utility.yul\":2043:2049   */\n      dup2\n        /* \"#utility.yul\":2030:2050   */\n      calldataload\n        /* \"#utility.yul\":2021:2050   */\n      swap1\n      pop\n        /* \"#utility.yul\":2059:2092   */\n      tag_91\n        /* \"#utility.yul\":2086:2091   */\n      dup2\n        /* \"#utility.yul\":2059:2092   */\n      tag_53\n      jump\t// in\n    tag_91:\n        /* \"#utility.yul\":1959:2098   */\n      swap3\n      swap2\n      pop\n      pop\n      jump\t// out\n        /* \"#utility.yul\":2104:2578   */\n    tag_18:\n        /* \"#utility.yul\":2172:2178   */\n      0x00\n        /* \"#utility.yul\":2180:2186   */\n      dup1\n        /* \"#utility.yul\":2229:2231   */\n      0x40\n        /* \"#utility.yul\":2217:2226   */\n      dup4\n        /* \"#utility.yul\":2208:2215   */\n      dup6\n        /* \"#utility.yul\":2204:2227   */\n      sub\n        /* \"#utility.yul\":2200:2232   */\n      slt\n        /* \"#utility.yul\":2197:2316   */\n      iszero\n      tag_93\n      jumpi\n        /* \"#utility.yul\":2235:2314   */\n      tag_94\n      tag_45\n      jump\t// in\n    tag_94:\n        /* \"#utility.yul\":2197:2316   */\n    tag_93:\n        /* \"#utility.yul\":2355:2356   */\n      0x00\n        /* \"#utility.yul\":2380:2433   */\n      tag_95\n        /* \"#utility.yul\":2425:2432   */\n      dup6\n        /* \"#utility.yul\":2416:2422   */\n      dup3\n        /* \"#utility.yul\":2405:2414   */\n      dup7\n        /* \"#utility.yul\":2401:2423   */\n      add\n        /* \"#utility.yul\":2380:2433   */\n      tag_50\n      jump\t// in\n    tag_95:\n        /* \"#utility.yul\":2370:2433   */\n      swap3\n      pop\n        /* \"#utility.yul\":2326:2443   */\n      pop\n        /* \"#utility.yul\":2482:2484   */\n      0x20\n        /* \"#utility.yul\":2508:2561   */\n      tag_96\n        /* \"#utility.yul\":2553:2560   */\n      dup6\n        /* \"#utility.yul\":2544:2550   */\n      dup3\n        /* \"#utility.yul\":2533:2542   */\n      dup7\n        /* \"#utility.yul\":2529:2551   */\n      add\n        /* \"#utility.yul\":2508:2561   */\n      tag_54\n      jump\t// in\n    tag_96:\n        /* \"#utility.yul\":2498:2561   */\n      swap2\n      pop\n        /* \"#utility.yul\":2453:2571   */\n      pop\n        /* \"#utility.yul\":2104:2578   */\n      swap3\n      pop\n      swap3\n      swap1\n      pop\n      jump\t// out\n        /* \"#utility.yul\":2584:2692   */\n    tag_55:\n        /* \"#utility.yul\":2661:2685   */\n      tag_98\n        /* \"#utility.yul\":2679:2684   */\n      dup2\n        /* \"#utility.yul\":2661:2685   */\n      tag_51\n      jump\t// in\n    tag_98:\n        /* \"#utility.yul\":2656:2659   */\n      dup3\n        /* \"#utility.yul\":2649:2686   */\n      mstore\n        /* \"#utility.yul\":2584:2692   */\n      pop\n      pop\n      jump\t// out\n        /* \"#utility.yul\":2794:3310   */\n    tag_56:\n        /* \"#utility.yul\":2943:2947   */\n      0x40\n        /* \"#utility.yul\":2938:2941   */\n      dup3\n        /* \"#utility.yul\":2934:2948   */\n      add\n        /* \"#utility.yul\":3032:3036   */\n      0x00\n        /* \"#utility.yul\":3025:3030   */\n      dup3\n        /* \"#utility.yul\":3021:3037   */\n      add\n        /* \"#utility.yul\":3015:3038   */\n      mload\n        /* \"#utility.yul\":3051:3114   */\n      tag_100\n        /* \"#utility.yul\":3108:3112   */\n      0x00\n        /* \"#utility.yul\":3103:3106   */\n      dup6\n        /* \"#utility.yul\":3099:3113   */\n      add\n        /* \"#utility.yul\":3085:3097   */\n      dup3\n        /* \"#utility.yul\":3051:3114   */\n      tag_55\n      jump\t// in\n    tag_100:\n        /* \"#utility.yul\":2958:3124   */\n      pop\n        /* \"#utility.yul\":3211:3215   */\n      0x20\n        /* \"#utility.yul\":3204:3209   */\n      dup3\n        /* \"#utility.yul\":3200:3216   */\n      add\n        /* \"#utility.yul\":3194:3217   */\n      mload\n        /* \"#utility.yul\":3230:3293   */\n      tag_101\n        /* \"#utility.yul\":3287:3291   */\n      0x20\n        /* \"#utility.yul\":3282:3285   */\n      dup6\n        /* \"#utility.yul\":3278:3292   */\n      add\n        /* \"#utility.yul\":3264:3276   */\n      dup3\n        /* \"#utility.yul\":3230:3293   */\n      tag_55\n      jump\t// in\n    tag_101:\n        /* \"#utility.yul\":3134:3303   */\n      pop\n        /* \"#utility.yul\":2912:3310   */\n      pop\n        /* \"#utility.yul\":2794:3310   */\n      pop\n      pop\n      jump\t// out\n        /* \"#utility.yul\":3316:3642   */\n    tag_21:\n        /* \"#utility.yul\":3461:3465   */\n      0x00\n        /* \"#utility.yul\":3499:3501   */\n      0x40\n        /* \"#utility.yul\":3488:3497   */\n      dup3\n        /* \"#utility.yul\":3484:3502   */\n      add\n        /* \"#utility.yul\":3476:3502   */\n      swap1\n      pop\n        /* \"#utility.yul\":3512:3635   */\n      tag_103\n        /* \"#utility.yul\":3632:3633   */\n      0x00\n        /* \"#utility.yul\":3621:3630   */\n      dup4\n        /* \"#utility.yul\":3617:3634   */\n      add\n        /* \"#utility.yul\":3608:3614   */\n      dup5\n        /* \"#utility.yul\":3512:3635   */\n      tag_56\n      jump\t// in\n    tag_103:\n        /* \"#utility.yul\":3316:3642   */\n      swap3\n      swap2\n      pop\n      pop\n      jump\t// out\n        /* \"#utility.yul\":3648:3752   */\n    tag_57:\n        /* \"#utility.yul\":3693:3700   */\n      0x00\n        /* \"#utility.yul\":3722:3746   */\n      tag_105\n        /* \"#utility.yul\":3740:3745   */\n      dup3\n        /* \"#utility.yul\":3722:3746   */\n      tag_47\n      jump\t// in\n    tag_105:\n        /* \"#utility.yul\":3711:3746   */\n      swap1\n      pop\n        /* \"#utility.yul\":3648:3752   */\n      swap2\n      swap1\n      pop\n      jump\t// out\n        /* \"#utility.yul\":3758:3896   */\n    tag_58:\n        /* \"#utility.yul\":3839:3871   */\n      tag_107\n        /* \"#utility.yul\":3865:3870   */\n      dup2\n        /* \"#utility.yul\":3839:3871   */\n      tag_57\n      jump\t// in\n    tag_107:\n        /* \"#utility.yul\":3832:3837   */\n      dup2\n        /* \"#utility.yul\":3829:3872   */\n      eq\n        /* \"#utility.yul\":3819:3890   */\n      tag_108\n      jumpi\n        /* \"#utility.yul\":3886:3887   */\n      0x00\n        /* \"#utility.yul\":3883:3884   */\n      dup1\n        /* \"#utility.yul\":3876:3888   */\n      revert\n        /* \"#utility.yul\":3819:3890   */\n    tag_108:\n        /* \"#utility.yul\":3758:3896   */\n      pop\n      jump\t// out\n        /* \"#utility.yul\":3902:4057   */\n    tag_59:\n        /* \"#utility.yul\":3956:3961   */\n      0x00\n        /* \"#utility.yul\":3994:4000   */\n      dup2\n        /* \"#utility.yul\":3981:4001   */\n      calldataload\n        /* \"#utility.yul\":3972:4001   */\n      swap1\n      pop\n        /* \"#utility.yul\":4010:4051   */\n      tag_110\n        /* \"#utility.yul\":4045:4050   */\n      dup2\n        /* \"#utility.yul\":4010:4051   */\n      tag_58\n      jump\t// in\n    tag_110:\n        /* \"#utility.yul\":3902:4057   */\n      swap3\n      swap2\n      pop\n      pop\n      jump\t// out\n        /* \"#utility.yul\":4063:4553   */\n    tag_25:\n        /* \"#utility.yul\":4139:4145   */\n      0x00\n        /* \"#utility.yul\":4147:4153   */\n      dup1\n        /* \"#utility.yul\":4196:4198   */\n      0x40\n        /* \"#utility.yul\":4184:4193   */\n      dup4\n        /* \"#utility.yul\":4175:4182   */\n      dup6\n        /* \"#utility.yul\":4171:4194   */\n      sub\n        /* \"#utility.yul\":4167:4199   */\n      slt\n        /* \"#utility.yul\":4164:4283   */\n      iszero\n      tag_112\n      jumpi\n        /* \"#utility.yul\":4202:4281   */\n      tag_113\n      tag_45\n      jump\t// in\n    tag_113:\n        /* \"#utility.yul\":4164:4283   */\n    tag_112:\n        /* \"#utility.yul\":4322:4323   */\n      0x00\n        /* \"#utility.yul\":4347:4408   */\n      tag_114\n        /* \"#utility.yul\":4400:4407   */\n      dup6\n        /* \"#utility.yul\":4391:4397   */\n      dup3\n        /* \"#utility.yul\":4380:4389   */\n      dup7\n        /* \"#utility.yul\":4376:4398   */\n      add\n        /* \"#utility.yul\":4347:4408   */\n      tag_59\n      jump\t// in\n    tag_114:\n        /* \"#utility.yul\":4337:4408   */\n      swap3\n      pop\n        /* \"#utility.yul\":4293:4418   */\n      pop\n        /* \"#utility.yul\":4457:4459   */\n      0x20\n        /* \"#utility.yul\":4483:4536   */\n      tag_115\n        /* \"#utility.yul\":4528:4535   */\n      dup6\n        /* \"#utility.yul\":4519:4525   */\n      dup3\n        /* \"#utility.yul\":4508:4517   */\n      dup7\n        /* \"#utility.yul\":4504:4526   */\n      add\n        /* \"#utility.yul\":4483:4536   */\n      tag_54\n      jump\t// in\n    tag_115:\n        /* \"#utility.yul\":4473:4536   */\n      swap2\n      pop\n        /* \"#utility.yul\":4428:4546   */\n      pop\n        /* \"#utility.yul\":4063:4553   */\n      swap3\n      pop\n      swap3\n      swap1\n      pop\n      jump\t// out\n        /* \"#utility.yul\":4559:4739   */\n    tag_60:\n        /* \"#utility.yul\":4607:4684   */\n      0x4e487b7100000000000000000000000000000000000000000000000000000000\n        /* \"#utility.yul\":4604:4605   */\n      0x00\n        /* \"#utility.yul\":4597:4685   */\n      mstore\n        /* \"#utility.yul\":4704:4708   */\n      0x11\n        /* \"#utility.yul\":4701:4702   */\n      0x04\n        /* \"#utility.yul\":4694:4709   */\n      mstore\n        /* \"#utility.yul\":4728:4732   */\n      0x24\n        /* \"#utility.yul\":4725:4726   */\n      0x00\n        /* \"#utility.yul\":4718:4733   */\n      revert\n        /* \"#utility.yul\":4745:5050   */\n    tag_29:\n        /* \"#utility.yul\":4785:4788   */\n      0x00\n        /* \"#utility.yul\":4804:4824   */\n      tag_118\n        /* \"#utility.yul\":4822:4823   */\n      dup3\n        /* \"#utility.yul\":4804:4824   */\n      tag_51\n      jump\t// in\n    tag_118:\n        /* \"#utility.yul\":4799:4824   */\n      swap2\n      pop\n        /* \"#utility.yul\":4838:4858   */\n      tag_119\n        /* \"#utility.yul\":4856:4857   */\n      dup4\n        /* \"#utility.yul\":4838:4858   */\n      tag_51\n      jump\t// in\n    tag_119:\n        /* \"#utility.yul\":4833:4858   */\n      swap3\n      pop\n        /* \"#utility.yul\":4992:4993   */\n      dup3\n        /* \"#utility.yul\":4924:4990   */\n      0xffffffffffffffffffffffffffffffffffffffffffffffffffffffffffffffff\n        /* \"#utility.yul\":4920:4994   */\n      sub\n        /* \"#utility.yul\":4917:4918   */\n      dup3\n        /* \"#utility.yul\":4914:4995   */\n      gt\n        /* \"#utility.yul\":4911:5018   */\n      iszero\n      tag_120\n      jumpi\n        /* \"#utility.yul\":4998:5016   */\n      tag_121\n      tag_60\n      jump\t// in\n    tag_121:\n        /* \"#utility.yul\":4911:5018   */\n    tag_120:\n        /* \"#utility.yul\":5042:5043   */\n      dup3\n        /* \"#utility.yul\":5039:5040   */\n      dup3\n        /* \"#utility.yul\":5035:5044   */\n      add\n        /* \"#utility.yul\":5028:5044   */\n      swap1\n      pop\n        /* \"#utility.yul\":4745:5050   */\n      swap3\n      swap2\n      pop\n      pop\n      jump\t// out\n        /* \"#utility.yul\":5056:5289   */\n    tag_31:\n        /* \"#utility.yul\":5095:5098   */\n      0x00\n        /* \"#utility.yul\":5118:5142   */\n      tag_123\n        /* \"#utility.yul\":5136:5141   */\n      dup3\n        /* \"#utility.yul\":5118:5142   */\n      tag_51\n      jump\t// in\n    tag_123:\n        /* \"#utility.yul\":5109:5142   */\n      swap2\n      pop\n        /* \"#utility.yul\":5164:5230   */\n      0xffffffffffffffffffffffffffffffffffffffffffffffffffffffffffffffff\n        /* \"#utility.yul\":5157:5162   */\n      dup3\n        /* \"#utility.yul\":5154:5231   */\n      sub\n        /* \"#utility.yul\":5151:5254   */\n      tag_124\n      jumpi\n        /* \"#utility.yul\":5234:5252   */\n      tag_125\n      tag_60\n      jump\t// in\n    tag_125:\n        /* \"#utility.yul\":5151:5254   */\n    tag_124:\n        /* \"#utility.yul\":5281:5282   */\n      0x01\n        /* \"#utility.yul\":5274:5279   */\n      dup3\n        /* \"#utility.yul\":5270:5283   */\n      add\n        /* \"#utility.yul\":5263:5283   */\n      swap1\n      pop\n        /* \"#utility.yul\":5056:5289   */\n      swap2\n      swap1\n      pop\n      jump\t// out\n        /* \"#utility.yul\":5295:5464   */\n    tag_61:\n        /* \"#utility.yul\":5379:5390   */\n      0x00\n        /* \"#utility.yul\":5413:5419   */\n      dup3\n        /* \"#utility.yul\":5408:5411   */\n      dup3\n        /* \"#utility.yul\":5401:5420   */\n      mstore\n        /* \"#utility.yul\":5453:5457   */\n      0x20\n        /* \"#utility.yul\":5448:5451   */\n      dup3\n        /* \"#utility.yul\":5444:5458   */\n      add\n        /* \"#utility.yul\":5429:5458   */\n      swap1\n      pop\n        /* \"#utility.yul\":5295:5464   */\n      swap3\n      swap2\n      pop\n      pop\n      jump\t// out\n        /* \"#utility.yul\":5470:5699   */\n    tag_62:\n        /* \"#utility.yul\":5610:5644   */\n      0x4661696c656420746f207769746864726177616c2e20547279206120736d616c\n        /* \"#utility.yul\":5606:5607   */\n      0x00\n        /* \"#utility.yul\":5598:5604   */\n      dup3\n        /* \"#utility.yul\":5594:5608   */\n      add\n        /* \"#utility.yul\":5587:5645   */\n      mstore\n        /* \"#utility.yul\":5679:5691   */\n      0x6c657220616d6f756e7400000000000000000000000000000000000000000000\n        /* \"#utility.yul\":5674:5676   */\n      0x20\n        /* \"#utility.yul\":5666:5672   */\n      dup3\n        /* \"#utility.yul\":5662:5677   */\n      add\n        /* \"#utility.yul\":5655:5692   */\n      mstore\n        /* \"#utility.yul\":5470:5699   */\n      pop\n      jump\t// out\n        /* \"#utility.yul\":5705:6071   */\n    tag_63:\n        /* \"#utility.yul\":5847:5850   */\n      0x00\n        /* \"#utility.yul\":5868:5935   */\n      tag_129\n        /* \"#utility.yul\":5932:5934   */\n      0x2a\n        /* \"#utility.yul\":5927:5930   */\n      dup4\n        /* \"#utility.yul\":5868:5935   */\n      tag_61\n      jump\t// in\n    tag_129:\n        /* \"#utility.yul\":5861:5935   */\n      swap2\n      pop\n        /* \"#utility.yul\":5944:6037   */\n      tag_130\n        /* \"#utility.yul\":6033:6036   */\n      dup3\n        /* \"#utility.yul\":5944:6037   */\n      tag_62\n      jump\t// in\n    tag_130:\n        /* \"#utility.yul\":6062:6064   */\n      0x40\n        /* \"#utility.yul\":6057:6060   */\n      dup3\n        /* \"#utility.yul\":6053:6065   */\n      add\n        /* \"#utility.yul\":6046:6065   */\n      swap1\n      pop\n        /* \"#utility.yul\":5705:6071   */\n      swap2\n      swap1\n      pop\n      jump\t// out\n        /* \"#utility.yul\":6077:6496   */\n    tag_38:\n        /* \"#utility.yul\":6243:6247   */\n      0x00\n        /* \"#utility.yul\":6281:6283   */\n      0x20\n        /* \"#utility.yul\":6270:6279   */\n      dup3\n        /* \"#utility.yul\":6266:6284   */\n      add\n        /* \"#utility.yul\":6258:6284   */\n      swap1\n      pop\n        /* \"#utility.yul\":6330:6339   */\n      dup2\n        /* \"#utility.yul\":6324:6328   */\n      dup2\n        /* \"#utility.yul\":6320:6340   */\n      sub\n        /* \"#utility.yul\":6316:6317   */\n      0x00\n        /* \"#utility.yul\":6305:6314   */\n      dup4\n        /* \"#utility.yul\":6301:6318   */\n      add\n        /* \"#utility.yul\":6294:6341   */\n      mstore\n        /* \"#utility.yul\":6358:6489   */\n      tag_132\n        /* \"#utility.yul\":6484:6488   */\n      dup2\n        /* \"#utility.yul\":6358:6489   */\n      tag_63\n      jump\t// in\n    tag_132:\n        /* \"#utility.yul\":6350:6489   */\n      swap1\n      pop\n        /* \"#utility.yul\":6077:6496   */\n      swap2\n      swap1\n      pop\n      jump\t// out\n        /* \"#utility.yul\":6502:6693   */\n    tag_40:\n        /* \"#utility.yul\":6542:6546   */\n      0x00\n        /* \"#utility.yul\":6562:6582   */\n      tag_134\n        /* \"#utility.yul\":6580:6581   */\n      dup3\n        /* \"#utility.yul\":6562:6582   */\n      tag_51\n      jump\t// in\n    tag_134:\n        /* \"#utility.yul\":6557:6582   */\n      swap2\n      pop\n        /* \"#utility.yul\":6596:6616   */\n      tag_135\n        /* \"#utility.yul\":6614:6615   */\n      dup4\n        /* \"#utility.yul\":6596:6616   */\n      tag_51\n      jump\t// in\n    tag_135:\n        /* \"#utility.yul\":6591:6616   */\n      swap3\n      pop\n        /* \"#utility.yul\":6635:6636   */\n      dup3\n        /* \"#utility.yul\":6632:6633   */\n      dup3\n        /* \"#utility.yul\":6629:6637   */\n      lt\n        /* \"#utility.yul\":6626:6660   */\n      iszero\n      tag_136\n      jumpi\n        /* \"#utility.yul\":6640:6658   */\n      tag_137\n      tag_60\n      jump\t// in\n    tag_137:\n        /* \"#utility.yul\":6626:6660   */\n    tag_136:\n        /* \"#utility.yul\":6685:6686   */\n      dup3\n        /* \"#utility.yul\":6682:6683   */\n      dup3\n        /* \"#utility.yul\":6678:6687   */\n      sub\n        /* \"#utility.yul\":6670:6687   */\n      swap1\n      pop\n        /* \"#utility.yul\":6502:6693   */\n      swap3\n      swap2\n      pop\n      pop\n      jump\t// out\n\n    auxdata: 0xa2646970667358221220be8259868fb967fad8158f446ed2c50047b97c5fe0f232c674ffefbfd4b06aa364736f6c634300080e0033\n}\n",
				"bytecode": {
					"linkReferences": {},
					"object": "608060405234801561001057600080fd5b5061096e806100206000396000f3fe60806040526004361061003f5760003560e01c80631d2827731461004457806327e235e31461004e578063e8dc8a181461008d578063f274c897146100ca575b600080fd5b61004c6100f3565b005b34801561005a57600080fd5b50610075600480360381019061007091906105d4565b610269565b6040516100849392919061061a565b60405180910390f35b34801561009957600080fd5b506100b460048036038101906100af919061067d565b610293565b6040516100c191906106fb565b60405180910390f35b3480156100d657600080fd5b506100f160048036038101906100ec9190610754565b610314565b005b346000803373ffffffffffffffffffffffffffffffffffffffff1673ffffffffffffffffffffffffffffffffffffffff168152602001908152602001600020600001600082825461014491906107c3565b9250508190555060006040518060400160405280348152602001428152509050806000803373ffffffffffffffffffffffffffffffffffffffff1673ffffffffffffffffffffffffffffffffffffffff16815260200190815260200160002060020160008060003373ffffffffffffffffffffffffffffffffffffffff1673ffffffffffffffffffffffffffffffffffffffff16815260200190815260200160002060010154815260200190815260200160002060008201518160000155602082015181600101559050506000803373ffffffffffffffffffffffffffffffffffffffff1673ffffffffffffffffffffffffffffffffffffffff168152602001908152602001600020600101600081548092919061026190610819565b919050555050565b60006020528060005260406000206000915090508060000154908060010154908060030154905083565b61029b610557565b6000808473ffffffffffffffffffffffffffffffffffffffff1673ffffffffffffffffffffffffffffffffffffffff168152602001908152602001600020600201600083815260200190815260200160002060405180604001604052908160008201548152602001600182015481525050905092915050565b806000803373ffffffffffffffffffffffffffffffffffffffff1673ffffffffffffffffffffffffffffffffffffffff168152602001908152602001600020600001541015610398576040517f08c379a000000000000000000000000000000000000000000000000000000000815260040161038f906108e4565b60405180910390fd5b806000803373ffffffffffffffffffffffffffffffffffffffff1673ffffffffffffffffffffffffffffffffffffffff16815260200190815260200160002060000160008282546103e99190610904565b9250508190555060006040518060400160405280838152602001428152509050806000803373ffffffffffffffffffffffffffffffffffffffff1673ffffffffffffffffffffffffffffffffffffffff16815260200190815260200160002060040160008060003373ffffffffffffffffffffffffffffffffffffffff1673ffffffffffffffffffffffffffffffffffffffff16815260200190815260200160002060030154815260200190815260200160002060008201518160000155602082015181600101559050506000803373ffffffffffffffffffffffffffffffffffffffff1673ffffffffffffffffffffffffffffffffffffffff168152602001908152602001600020600301600081548092919061050690610819565b91905055508273ffffffffffffffffffffffffffffffffffffffff166108fc839081150290604051600060405180830381858888f19350505050158015610551573d6000803e3d6000fd5b50505050565b604051806040016040528060008152602001600081525090565b600080fd5b600073ffffffffffffffffffffffffffffffffffffffff82169050919050565b60006105a182610576565b9050919050565b6105b181610596565b81146105bc57600080fd5b50565b6000813590506105ce816105a8565b92915050565b6000602082840312156105ea576105e9610571565b5b60006105f8848285016105bf565b91505092915050565b6000819050919050565b61061481610601565b82525050565b600060608201905061062f600083018661060b565b61063c602083018561060b565b610649604083018461060b565b949350505050565b61065a81610601565b811461066557600080fd5b50565b60008135905061067781610651565b92915050565b6000806040838503121561069457610693610571565b5b60006106a2858286016105bf565b92505060206106b385828601610668565b9150509250929050565b6106c681610601565b82525050565b6040820160008201516106e260008501826106bd565b5060208201516106f560208501826106bd565b50505050565b600060408201905061071060008301846106cc565b92915050565b600061072182610576565b9050919050565b61073181610716565b811461073c57600080fd5b50565b60008135905061074e81610728565b92915050565b6000806040838503121561076b5761076a610571565b5b60006107798582860161073f565b925050602061078a85828601610668565b9150509250929050565b7f4e487b7100000000000000000000000000000000000000000000000000000000600052601160045260246000fd5b60006107ce82610601565b91506107d983610601565b9250827fffffffffffffffffffffffffffffffffffffffffffffffffffffffffffffffff0382111561080e5761080d610794565b5b828201905092915050565b600061082482610601565b91507fffffffffffffffffffffffffffffffffffffffffffffffffffffffffffffffff820361085657610855610794565b5b600182019050919050565b600082825260208201905092915050565b7f4661696c656420746f207769746864726177616c2e20547279206120736d616c60008201527f6c657220616d6f756e7400000000000000000000000000000000000000000000602082015250565b60006108ce602a83610861565b91506108d982610872565b604082019050919050565b600060208201905081810360008301526108fd816108c1565b9050919050565b600061090f82610601565b915061091a83610601565b92508282101561092d5761092c610794565b5b82820390509291505056fea2646970667358221220be8259868fb967fad8158f446ed2c50047b97c5fe0f232c674ffefbfd4b06aa364736f6c634300080e0033",
					"opcodes": "PUSH1 0x80 PUSH1 0x40 MSTORE CALLVALUE DUP1 ISZERO PUSH2 0x10 JUMPI PUSH1 0x0 DUP1 REVERT JUMPDEST POP PUSH2 0x96E DUP1 PUSH2 0x20 PUSH1 0x0 CODECOPY PUSH1 0x0 RETURN INVALID PUSH1 0x80 PUSH1 0x40 MSTORE PUSH1 0x4 CALLDATASIZE LT PUSH2 0x3F JUMPI PUSH1 0x0 CALLDATALOAD PUSH1 0xE0 SHR DUP1 PUSH4 0x1D282773 EQ PUSH2 0x44 JUMPI DUP1 PUSH4 0x27E235E3 EQ PUSH2 0x4E JUMPI DUP1 PUSH4 0xE8DC8A18 EQ PUSH2 0x8D JUMPI DUP1 PUSH4 0xF274C897 EQ PUSH2 0xCA JUMPI JUMPDEST PUSH1 0x0 DUP1 REVERT JUMPDEST PUSH2 0x4C PUSH2 0xF3 JUMP JUMPDEST STOP JUMPDEST CALLVALUE DUP1 ISZERO PUSH2 0x5A JUMPI PUSH1 0x0 DUP1 REVERT JUMPDEST POP PUSH2 0x75 PUSH1 0x4 DUP1 CALLDATASIZE SUB DUP2 ADD SWAP1 PUSH2 0x70 SWAP2 SWAP1 PUSH2 0x5D4 JUMP JUMPDEST PUSH2 0x269 JUMP JUMPDEST PUSH1 0x40 MLOAD PUSH2 0x84 SWAP4 SWAP3 SWAP2 SWAP1 PUSH2 0x61A JUMP JUMPDEST PUSH1 0x40 MLOAD DUP1 SWAP2 SUB SWAP1 RETURN JUMPDEST CALLVALUE DUP1 ISZERO PUSH2 0x99 JUMPI PUSH1 0x0 DUP1 REVERT JUMPDEST POP PUSH2 0xB4 PUSH1 0x4 DUP1 CALLDATASIZE SUB DUP2 ADD SWAP1 PUSH2 0xAF SWAP2 SWAP1 PUSH2 0x67D JUMP JUMPDEST PUSH2 0x293 JUMP JUMPDEST PUSH1 0x40 MLOAD PUSH2 0xC1 SWAP2 SWAP1 PUSH2 0x6FB JUMP JUMPDEST PUSH1 0x40 MLOAD DUP1 SWAP2 SUB SWAP1 RETURN JUMPDEST CALLVALUE DUP1 ISZERO PUSH2 0xD6 JUMPI PUSH1 0x0 DUP1 REVERT JUMPDEST POP PUSH2 0xF1 PUSH1 0x4 DUP1 CALLDATASIZE SUB DUP2 ADD SWAP1 PUSH2 0xEC SWAP2 SWAP1 PUSH2 0x754 JUMP JUMPDEST PUSH2 0x314 JUMP JUMPDEST STOP JUMPDEST CALLVALUE PUSH1 0x0 DUP1 CALLER PUSH20 0xFFFFFFFFFFFFFFFFFFFFFFFFFFFFFFFFFFFFFFFF AND PUSH20 0xFFFFFFFFFFFFFFFFFFFFFFFFFFFFFFFFFFFFFFFF AND DUP2 MSTORE PUSH1 0x20 ADD SWAP1 DUP2 MSTORE PUSH1 0x20 ADD PUSH1 0x0 KECCAK256 PUSH1 0x0 ADD PUSH1 0x0 DUP3 DUP3 SLOAD PUSH2 0x144 SWAP2 SWAP1 PUSH2 0x7C3 JUMP JUMPDEST SWAP3 POP POP DUP2 SWAP1 SSTORE POP PUSH1 0x0 PUSH1 0x40 MLOAD DUP1 PUSH1 0x40 ADD PUSH1 0x40 MSTORE DUP1 CALLVALUE DUP2 MSTORE PUSH1 0x20 ADD TIMESTAMP DUP2 MSTORE POP SWAP1 POP DUP1 PUSH1 0x0 DUP1 CALLER PUSH20 0xFFFFFFFFFFFFFFFFFFFFFFFFFFFFFFFFFFFFFFFF AND PUSH20 0xFFFFFFFFFFFFFFFFFFFFFFFFFFFFFFFFFFFFFFFF AND DUP2 MSTORE PUSH1 0x20 ADD SWAP1 DUP2 MSTORE PUSH1 0x20 ADD PUSH1 0x0 KECCAK256 PUSH1 0x2 ADD PUSH1 0x0 DUP1 PUSH1 0x0 CALLER PUSH20 0xFFFFFFFFFFFFFFFFFFFFFFFFFFFFFFFFFFFFFFFF AND PUSH20 0xFFFFFFFFFFFFFFFFFFFFFFFFFFFFFFFFFFFFFFFF AND DUP2 MSTORE PUSH1 0x20 ADD SWAP1 DUP2 MSTORE PUSH1 0x20 ADD PUSH1 0x0 KECCAK256 PUSH1 0x1 ADD SLOAD DUP2 MSTORE PUSH1 0x20 ADD SWAP1 DUP2 MSTORE PUSH1 0x20 ADD PUSH1 0x0 KECCAK256 PUSH1 0x0 DUP3 ADD MLOAD DUP2 PUSH1 0x0 ADD SSTORE PUSH1 0x20 DUP3 ADD MLOAD DUP2 PUSH1 0x1 ADD SSTORE SWAP1 POP POP PUSH1 0x0 DUP1 CALLER PUSH20 0xFFFFFFFFFFFFFFFFFFFFFFFFFFFFFFFFFFFFFFFF AND PUSH20 0xFFFFFFFFFFFFFFFFFFFFFFFFFFFFFFFFFFFFFFFF AND DUP2 MSTORE PUSH1 0x20 ADD SWAP1 DUP2 MSTORE PUSH1 0x20 ADD PUSH1 0x0 KECCAK256 PUSH1 0x1 ADD PUSH1 0x0 DUP2 SLOAD DUP1 SWAP3 SWAP2 SWAP1 PUSH2 0x261 SWAP1 PUSH2 0x819 JUMP JUMPDEST SWAP2 SWAP1 POP SSTORE POP POP JUMP JUMPDEST PUSH1 0x0 PUSH1 0x20 MSTORE DUP1 PUSH1 0x0 MSTORE PUSH1 0x40 PUSH1 0x0 KECCAK256 PUSH1 0x0 SWAP2 POP SWAP1 POP DUP1 PUSH1 0x0 ADD SLOAD SWAP1 DUP1 PUSH1 0x1 ADD SLOAD SWAP1 DUP1 PUSH1 0x3 ADD SLOAD SWAP1 POP DUP4 JUMP JUMPDEST PUSH2 0x29B PUSH2 0x557 JUMP JUMPDEST PUSH1 0x0 DUP1 DUP5 PUSH20 0xFFFFFFFFFFFFFFFFFFFFFFFFFFFFFFFFFFFFFFFF AND PUSH20 0xFFFFFFFFFFFFFFFFFFFFFFFFFFFFFFFFFFFFFFFF AND DUP2 MSTORE PUSH1 0x20 ADD SWAP1 DUP2 MSTORE PUSH1 0x20 ADD PUSH1 0x0 KECCAK256 PUSH1 0x2 ADD PUSH1 0x0 DUP4 DUP2 MSTORE PUSH1 0x20 ADD SWAP1 DUP2 MSTORE PUSH1 0x20 ADD PUSH1 0x0 KECCAK256 PUSH1 0x40 MLOAD DUP1 PUSH1 0x40 ADD PUSH1 0x40 MSTORE SWAP1 DUP2 PUSH1 0x0 DUP3 ADD SLOAD DUP2 MSTORE PUSH1 0x20 ADD PUSH1 0x1 DUP3 ADD SLOAD DUP2 MSTORE POP POP SWAP1 POP SWAP3 SWAP2 POP POP JUMP JUMPDEST DUP1 PUSH1 0x0 DUP1 CALLER PUSH20 0xFFFFFFFFFFFFFFFFFFFFFFFFFFFFFFFFFFFFFFFF AND PUSH20 0xFFFFFFFFFFFFFFFFFFFFFFFFFFFFFFFFFFFFFFFF AND DUP2 MSTORE PUSH1 0x20 ADD SWAP1 DUP2 MSTORE PUSH1 0x20 ADD PUSH1 0x0 KECCAK256 PUSH1 0x0 ADD SLOAD LT ISZERO PUSH2 0x398 JUMPI PUSH1 0x40 MLOAD PUSH32 0x8C379A000000000000000000000000000000000000000000000000000000000 DUP2 MSTORE PUSH1 0x4 ADD PUSH2 0x38F SWAP1 PUSH2 0x8E4 JUMP JUMPDEST PUSH1 0x40 MLOAD DUP1 SWAP2 SUB SWAP1 REVERT JUMPDEST DUP1 PUSH1 0x0 DUP1 CALLER PUSH20 0xFFFFFFFFFFFFFFFFFFFFFFFFFFFFFFFFFFFFFFFF AND PUSH20 0xFFFFFFFFFFFFFFFFFFFFFFFFFFFFFFFFFFFFFFFF AND DUP2 MSTORE PUSH1 0x20 ADD SWAP1 DUP2 MSTORE PUSH1 0x20 ADD PUSH1 0x0 KECCAK256 PUSH1 0x0 ADD PUSH1 0x0 DUP3 DUP3 SLOAD PUSH2 0x3E9 SWAP2 SWAP1 PUSH2 0x904 JUMP JUMPDEST SWAP3 POP POP DUP2 SWAP1 SSTORE POP PUSH1 0x0 PUSH1 0x40 MLOAD DUP1 PUSH1 0x40 ADD PUSH1 0x40 MSTORE DUP1 DUP4 DUP2 MSTORE PUSH1 0x20 ADD TIMESTAMP DUP2 MSTORE POP SWAP1 POP DUP1 PUSH1 0x0 DUP1 CALLER PUSH20 0xFFFFFFFFFFFFFFFFFFFFFFFFFFFFFFFFFFFFFFFF AND PUSH20 0xFFFFFFFFFFFFFFFFFFFFFFFFFFFFFFFFFFFFFFFF AND DUP2 MSTORE PUSH1 0x20 ADD SWAP1 DUP2 MSTORE PUSH1 0x20 ADD PUSH1 0x0 KECCAK256 PUSH1 0x4 ADD PUSH1 0x0 DUP1 PUSH1 0x0 CALLER PUSH20 0xFFFFFFFFFFFFFFFFFFFFFFFFFFFFFFFFFFFFFFFF AND PUSH20 0xFFFFFFFFFFFFFFFFFFFFFFFFFFFFFFFFFFFFFFFF AND DUP2 MSTORE PUSH1 0x20 ADD SWAP1 DUP2 MSTORE PUSH1 0x20 ADD PUSH1 0x0 KECCAK256 PUSH1 0x3 ADD SLOAD DUP2 MSTORE PUSH1 0x20 ADD SWAP1 DUP2 MSTORE PUSH1 0x20 ADD PUSH1 0x0 KECCAK256 PUSH1 0x0 DUP3 ADD MLOAD DUP2 PUSH1 0x0 ADD SSTORE PUSH1 0x20 DUP3 ADD MLOAD DUP2 PUSH1 0x1 ADD SSTORE SWAP1 POP POP PUSH1 0x0 DUP1 CALLER PUSH20 0xFFFFFFFFFFFFFFFFFFFFFFFFFFFFFFFFFFFFFFFF AND PUSH20 0xFFFFFFFFFFFFFFFFFFFFFFFFFFFFFFFFFFFFFFFF AND DUP2 MSTORE PUSH1 0x20 ADD SWAP1 DUP2 MSTORE PUSH1 0x20 ADD PUSH1 0x0 KECCAK256 PUSH1 0x3 ADD PUSH1 0x0 DUP2 SLOAD DUP1 SWAP3 SWAP2 SWAP1 PUSH2 0x506 SWAP1 PUSH2 0x819 JUMP JUMPDEST SWAP2 SWAP1 POP SSTORE POP DUP3 PUSH20 0xFFFFFFFFFFFFFFFFFFFFFFFFFFFFFFFFFFFFFFFF AND PUSH2 0x8FC DUP4 SWAP1 DUP2 ISZERO MUL SWAP1 PUSH1 0x40 MLOAD PUSH1 0x0 PUSH1 0x40 MLOAD DUP1 DUP4 SUB DUP2 DUP6 DUP9 DUP9 CALL SWAP4 POP POP POP POP ISZERO DUP1 ISZERO PUSH2 0x551 JUMPI RETURNDATASIZE PUSH1 0x0 DUP1 RETURNDATACOPY RETURNDATASIZE PUSH1 0x0 REVERT JUMPDEST POP POP POP POP JUMP JUMPDEST PUSH1 0x40 MLOAD DUP1 PUSH1 0x40 ADD PUSH1 0x40 MSTORE DUP1 PUSH1 0x0 DUP2 MSTORE PUSH1 0x20 ADD PUSH1 0x0 DUP2 MSTORE POP SWAP1 JUMP JUMPDEST PUSH1 0x0 DUP1 REVERT JUMPDEST PUSH1 0x0 PUSH20 0xFFFFFFFFFFFFFFFFFFFFFFFFFFFFFFFFFFFFFFFF DUP3 AND SWAP1 POP SWAP2 SWAP1 POP JUMP JUMPDEST PUSH1 0x0 PUSH2 0x5A1 DUP3 PUSH2 0x576 JUMP JUMPDEST SWAP1 POP SWAP2 SWAP1 POP JUMP JUMPDEST PUSH2 0x5B1 DUP2 PUSH2 0x596 JUMP JUMPDEST DUP2 EQ PUSH2 0x5BC JUMPI PUSH1 0x0 DUP1 REVERT JUMPDEST POP JUMP JUMPDEST PUSH1 0x0 DUP2 CALLDATALOAD SWAP1 POP PUSH2 0x5CE DUP2 PUSH2 0x5A8 JUMP JUMPDEST SWAP3 SWAP2 POP POP JUMP JUMPDEST PUSH1 0x0 PUSH1 0x20 DUP3 DUP5 SUB SLT ISZERO PUSH2 0x5EA JUMPI PUSH2 0x5E9 PUSH2 0x571 JUMP JUMPDEST JUMPDEST PUSH1 0x0 PUSH2 0x5F8 DUP5 DUP3 DUP6 ADD PUSH2 0x5BF JUMP JUMPDEST SWAP2 POP POP SWAP3 SWAP2 POP POP JUMP JUMPDEST PUSH1 0x0 DUP2 SWAP1 POP SWAP2 SWAP1 POP JUMP JUMPDEST PUSH2 0x614 DUP2 PUSH2 0x601 JUMP JUMPDEST DUP3 MSTORE POP POP JUMP JUMPDEST PUSH1 0x0 PUSH1 0x60 DUP3 ADD SWAP1 POP PUSH2 0x62F PUSH1 0x0 DUP4 ADD DUP7 PUSH2 0x60B JUMP JUMPDEST PUSH2 0x63C PUSH1 0x20 DUP4 ADD DUP6 PUSH2 0x60B JUMP JUMPDEST PUSH2 0x649 PUSH1 0x40 DUP4 ADD DUP5 PUSH2 0x60B JUMP JUMPDEST SWAP5 SWAP4 POP POP POP POP JUMP JUMPDEST PUSH2 0x65A DUP2 PUSH2 0x601 JUMP JUMPDEST DUP2 EQ PUSH2 0x665 JUMPI PUSH1 0x0 DUP1 REVERT JUMPDEST POP JUMP JUMPDEST PUSH1 0x0 DUP2 CALLDATALOAD SWAP1 POP PUSH2 0x677 DUP2 PUSH2 0x651 JUMP JUMPDEST SWAP3 SWAP2 POP POP JUMP JUMPDEST PUSH1 0x0 DUP1 PUSH1 0x40 DUP4 DUP6 SUB SLT ISZERO PUSH2 0x694 JUMPI PUSH2 0x693 PUSH2 0x571 JUMP JUMPDEST JUMPDEST PUSH1 0x0 PUSH2 0x6A2 DUP6 DUP3 DUP7 ADD PUSH2 0x5BF JUMP JUMPDEST SWAP3 POP POP PUSH1 0x20 PUSH2 0x6B3 DUP6 DUP3 DUP7 ADD PUSH2 0x668 JUMP JUMPDEST SWAP2 POP POP SWAP3 POP SWAP3 SWAP1 POP JUMP JUMPDEST PUSH2 0x6C6 DUP2 PUSH2 0x601 JUMP JUMPDEST DUP3 MSTORE POP POP JUMP JUMPDEST PUSH1 0x40 DUP3 ADD PUSH1 0x0 DUP3 ADD MLOAD PUSH2 0x6E2 PUSH1 0x0 DUP6 ADD DUP3 PUSH2 0x6BD JUMP JUMPDEST POP PUSH1 0x20 DUP3 ADD MLOAD PUSH2 0x6F5 PUSH1 0x20 DUP6 ADD DUP3 PUSH2 0x6BD JUMP JUMPDEST POP POP POP POP JUMP JUMPDEST PUSH1 0x0 PUSH1 0x40 DUP3 ADD SWAP1 POP PUSH2 0x710 PUSH1 0x0 DUP4 ADD DUP5 PUSH2 0x6CC JUMP JUMPDEST SWAP3 SWAP2 POP POP JUMP JUMPDEST PUSH1 0x0 PUSH2 0x721 DUP3 PUSH2 0x576 JUMP JUMPDEST SWAP1 POP SWAP2 SWAP1 POP JUMP JUMPDEST PUSH2 0x731 DUP2 PUSH2 0x716 JUMP JUMPDEST DUP2 EQ PUSH2 0x73C JUMPI PUSH1 0x0 DUP1 REVERT JUMPDEST POP JUMP JUMPDEST PUSH1 0x0 DUP2 CALLDATALOAD SWAP1 POP PUSH2 0x74E DUP2 PUSH2 0x728 JUMP JUMPDEST SWAP3 SWAP2 POP POP JUMP JUMPDEST PUSH1 0x0 DUP1 PUSH1 0x40 DUP4 DUP6 SUB SLT ISZERO PUSH2 0x76B JUMPI PUSH2 0x76A PUSH2 0x571 JUMP JUMPDEST JUMPDEST PUSH1 0x0 PUSH2 0x779 DUP6 DUP3 DUP7 ADD PUSH2 0x73F JUMP JUMPDEST SWAP3 POP POP PUSH1 0x20 PUSH2 0x78A DUP6 DUP3 DUP7 ADD PUSH2 0x668 JUMP JUMPDEST SWAP2 POP POP SWAP3 POP SWAP3 SWAP1 POP JUMP JUMPDEST PUSH32 0x4E487B7100000000000000000000000000000000000000000000000000000000 PUSH1 0x0 MSTORE PUSH1 0x11 PUSH1 0x4 MSTORE PUSH1 0x24 PUSH1 0x0 REVERT JUMPDEST PUSH1 0x0 PUSH2 0x7CE DUP3 PUSH2 0x601 JUMP JUMPDEST SWAP2 POP PUSH2 0x7D9 DUP4 PUSH2 0x601 JUMP JUMPDEST SWAP3 POP DUP3 PUSH32 0xFFFFFFFFFFFFFFFFFFFFFFFFFFFFFFFFFFFFFFFFFFFFFFFFFFFFFFFFFFFFFFFF SUB DUP3 GT ISZERO PUSH2 0x80E JUMPI PUSH2 0x80D PUSH2 0x794 JUMP JUMPDEST JUMPDEST DUP3 DUP3 ADD SWAP1 POP SWAP3 SWAP2 POP POP JUMP JUMPDEST PUSH1 0x0 PUSH2 0x824 DUP3 PUSH2 0x601 JUMP JUMPDEST SWAP2 POP PUSH32 0xFFFFFFFFFFFFFFFFFFFFFFFFFFFFFFFFFFFFFFFFFFFFFFFFFFFFFFFFFFFFFFFF DUP3 SUB PUSH2 0x856 JUMPI PUSH2 0x855 PUSH2 0x794 JUMP JUMPDEST JUMPDEST PUSH1 0x1 DUP3 ADD SWAP1 POP SWAP2 SWAP1 POP JUMP JUMPDEST PUSH1 0x0 DUP3 DUP3 MSTORE PUSH1 0x20 DUP3 ADD SWAP1 POP SWAP3 SWAP2 POP POP JUMP JUMPDEST PUSH32 0x4661696C656420746F207769746864726177616C2E20547279206120736D616C PUSH1 0x0 DUP3 ADD MSTORE PUSH32 0x6C657220616D6F756E7400000000000000000000000000000000000000000000 PUSH1 0x20 DUP3 ADD MSTORE POP JUMP JUMPDEST PUSH1 0x0 PUSH2 0x8CE PUSH1 0x2A DUP4 PUSH2 0x861 JUMP JUMPDEST SWAP2 POP PUSH2 0x8D9 DUP3 PUSH2 0x872 JUMP JUMPDEST PUSH1 0x40 DUP3 ADD SWAP1 POP SWAP2 SWAP1 POP JUMP JUMPDEST PUSH1 0x0 PUSH1 0x20 DUP3 ADD SWAP1 POP DUP2 DUP2 SUB PUSH1 0x0 DUP4 ADD MSTORE PUSH2 0x8FD DUP2 PUSH2 0x8C1 JUMP JUMPDEST SWAP1 POP SWAP2 SWAP1 POP JUMP JUMPDEST PUSH1 0x0 PUSH2 0x90F DUP3 PUSH2 0x601 JUMP JUMPDEST SWAP2 POP PUSH2 0x91A DUP4 PUSH2 0x601 JUMP JUMPDEST SWAP3 POP DUP3 DUP3 LT ISZERO PUSH2 0x92D JUMPI PUSH2 0x92C PUSH2 0x794 JUMP JUMPDEST JUMPDEST DUP3 DUP3 SUB SWAP1 POP SWAP3 SWAP2 POP POP JUMP INVALID LOG2 PUSH5 0x6970667358 0x22 SLT KECCAK256 0xBE DUP3 MSIZE DUP7 DUP16 0xB9 PUSH8 0xFAD8158F446ED2C5 STOP SELFBALANCE 0xB9 PUSH29 0x5FE0F232C674FFEFBFD4B06AA364736F6C634300080E00330000000000 "
				},
				"gasEstimates": {
					"creation": {
						"codeDepositCost": "482800",
						"executionCost": "518",
						"totalCost": "483318"
					},
					"external": {
						"balances(address)": "infinite",
						"deposityMoney()": "infinite",
						"getDeposityNum(address,uint256)": "infinite",
						"withdrawMoney(address,uint256)": "infinite"
					}
				},
				"methodIdentifiers": {
					"balances(address)": "27e235e3",
					"deposityMoney()": "1d282773",
					"getDeposityNum(address,uint256)": "e8dc8a18",
					"withdrawMoney(address,uint256)": "f274c897"
				}
			},
			"storageLayout": {
				"storage": [
					{
						"astId": 28,
						"contract": "contracts/ExampleExceptionRequire.sol:ExampleExceptionRequire",
						"label": "balances",
						"offset": 0,
						"slot": "0",
						"type": "t_mapping(t_address,t_struct(Balance)23_storage)"
					}
				],
				"types": {
					"t_address": {
						"encoding": "inplace",
						"label": "address",
						"numberOfBytes": "20"
					},
					"t_mapping(t_address,t_struct(Balance)23_storage)": {
						"encoding": "mapping",
						"key": "t_address",
						"label": "mapping(address => struct ExampleExceptionRequire.Balance)",
						"numberOfBytes": "32",
						"value": "t_struct(Balance)23_storage"
					},
					"t_mapping(t_uint256,t_struct(Transaction)6_storage)": {
						"encoding": "mapping",
						"key": "t_uint256",
						"label": "mapping(uint256 => struct ExampleExceptionRequire.Transaction)",
						"numberOfBytes": "32",
						"value": "t_struct(Transaction)6_storage"
					},
					"t_struct(Balance)23_storage": {
						"encoding": "inplace",
						"label": "struct ExampleExceptionRequire.Balance",
						"members": [
							{
								"astId": 8,
								"contract": "contracts/ExampleExceptionRequire.sol:ExampleExceptionRequire",
								"label": "totalBalance",
								"offset": 0,
								"slot": "0",
								"type": "t_uint256"
							},
							{
								"astId": 10,
								"contract": "contracts/ExampleExceptionRequire.sol:ExampleExceptionRequire",
								"label": "numDeposits",
								"offset": 0,
								"slot": "1",
								"type": "t_uint256"
							},
							{
								"astId": 15,
								"contract": "contracts/ExampleExceptionRequire.sol:ExampleExceptionRequire",
								"label": "deposits",
								"offset": 0,
								"slot": "2",
								"type": "t_mapping(t_uint256,t_struct(Transaction)6_storage)"
							},
							{
								"astId": 17,
								"contract": "contracts/ExampleExceptionRequire.sol:ExampleExceptionRequire",
								"label": "numWithdrawals",
								"offset": 0,
								"slot": "3",
								"type": "t_uint256"
							},
							{
								"astId": 22,
								"contract": "contracts/ExampleExceptionRequire.sol:ExampleExceptionRequire",
								"label": "withdrawals",
								"offset": 0,
								"slot": "4",
								"type": "t_mapping(t_uint256,t_struct(Transaction)6_storage)"
							}
						],
						"numberOfBytes": "160"
					},
					"t_struct(Transaction)6_storage": {
						"encoding": "inplace",
						"label": "struct ExampleExceptionRequire.Transaction",
						"members": [
							{
								"astId": 3,
								"contract": "contracts/ExampleExceptionRequire.sol:ExampleExceptionRequire",
								"label": "amount",
								"offset": 0,
								"slot": "0",
								"type": "t_uint256"
							},
							{
								"astId": 5,
								"contract": "contracts/ExampleExceptionRequire.sol:ExampleExceptionRequire",
								"label": "timestamp",
								"offset": 0,
								"slot": "1",
								"type": "t_uint256"
							}
						],
						"numberOfBytes": "64"
					},
					"t_uint256": {
						"encoding": "inplace",
						"label": "uint256",
						"numberOfBytes": "32"
					}
				}
			},
			"userdoc": {
				"kind": "user",
				"methods": {},
				"version": 1
			}
		}
	}
}