{
	"data": {
		"bytecode": {
			"linkReferences": {},
			"object": "608060405234801561001057600080fd5b506104c4806100206000396000f3fe6080604052600436106100435760003560e01c806306540f7e146100f05780635f9475861461011b578063c0aacb9f14610146578063e36a66551461016f5761009c565b3661009c57346000819055506040518060400160405280600781526020017f72656365697665000000000000000000000000000000000000000000000000008152506001908051906020019061009a92919061023e565b005b346000819055506040518060400160405280600881526020017f66616c6c6261636b000000000000000000000000000000000000000000000000815250600190805190602001906100ee92919061023e565b005b3480156100fc57600080fd5b5061010561019a565b60405161011291906102fa565b60405180910390f35b34801561012757600080fd5b506101306101a0565b60405161013d91906103ae565b60405180910390f35b34801561015257600080fd5b5061016d60048036038101906101689190610401565b61022e565b005b34801561017b57600080fd5b50610184610238565b60405161019191906102fa565b60405180910390f35b60025481565b600180546101ad9061045d565b80601f01602080910402602001604051908101604052809291908181526020018280546101d99061045d565b80156102265780601f106101fb57610100808354040283529160200191610226565b820191906000526020600020905b81548152906001019060200180831161020957829003601f168201915b505050505081565b8060028190555050565b60005481565b82805461024a9061045d565b90600052602060002090601f01602090048101928261026c57600085556102b3565b82601f1061028557805160ff19168380011785556102b3565b828001600101855582156102b3579182015b828111156102b2578251825591602001919060010190610297565b5b5090506102c091906102c4565b5090565b5b808211156102dd5760008160009055506001016102c5565b5090565b6000819050919050565b6102f4816102e1565b82525050565b600060208201905061030f60008301846102eb565b92915050565b600081519050919050565b600082825260208201905092915050565b60005b8381101561034f578082015181840152602081019050610334565b8381111561035e576000848401525b50505050565b6000601f19601f8301169050919050565b600061038082610315565b61038a8185610320565b935061039a818560208601610331565b6103a381610364565b840191505092915050565b600060208201905081810360008301526103c88184610375565b905092915050565b600080fd5b6103de816102e1565b81146103e957600080fd5b50565b6000813590506103fb816103d5565b92915050565b600060208284031215610417576104166103d0565b5b6000610425848285016103ec565b91505092915050565b7f4e487b7100000000000000000000000000000000000000000000000000000000600052602260045260246000fd5b6000600282049050600182168061047557607f821691505b6020821081036104885761048761042e565b5b5091905056fea2646970667358221220ff9a2b88badc2e8827950c55075b64510987da37ad5e71263797a159dcb5f5d864736f6c634300080e0033",
			"opcodes": "PUSH1 0x80 PUSH1 0x40 MSTORE CALLVALUE DUP1 ISZERO PUSH2 0x10 JUMPI PUSH1 0x0 DUP1 REVERT JUMPDEST POP PUSH2 0x4C4 DUP1 PUSH2 0x20 PUSH1 0x0 CODECOPY PUSH1 0x0 RETURN INVALID PUSH1 0x80 PUSH1 0x40 MSTORE PUSH1 0x4 CALLDATASIZE LT PUSH2 0x43 JUMPI PUSH1 0x0 CALLDATALOAD PUSH1 0xE0 SHR DUP1 PUSH4 0x6540F7E EQ PUSH2 0xF0 JUMPI DUP1 PUSH4 0x5F947586 EQ PUSH2 0x11B JUMPI DUP1 PUSH4 0xC0AACB9F EQ PUSH2 0x146 JUMPI DUP1 PUSH4 0xE36A6655 EQ PUSH2 0x16F JUMPI PUSH2 0x9C JUMP JUMPDEST CALLDATASIZE PUSH2 0x9C JUMPI CALLVALUE PUSH1 0x0 DUP2 SWAP1 SSTORE POP PUSH1 0x40 MLOAD DUP1 PUSH1 0x40 ADD PUSH1 0x40 MSTORE DUP1 PUSH1 0x7 DUP2 MSTORE PUSH1 0x20 ADD PUSH32 0x7265636569766500000000000000000000000000000000000000000000000000 DUP2 MSTORE POP PUSH1 0x1 SWAP1 DUP1 MLOAD SWAP1 PUSH1 0x20 ADD SWAP1 PUSH2 0x9A SWAP3 SWAP2 SWAP1 PUSH2 0x23E JUMP JUMPDEST STOP JUMPDEST CALLVALUE PUSH1 0x0 DUP2 SWAP1 SSTORE POP PUSH1 0x40 MLOAD DUP1 PUSH1 0x40 ADD PUSH1 0x40 MSTORE DUP1 PUSH1 0x8 DUP2 MSTORE PUSH1 0x20 ADD PUSH32 0x66616C6C6261636B000000000000000000000000000000000000000000000000 DUP2 MSTORE POP PUSH1 0x1 SWAP1 DUP1 MLOAD SWAP1 PUSH1 0x20 ADD SWAP1 PUSH2 0xEE SWAP3 SWAP2 SWAP1 PUSH2 0x23E JUMP JUMPDEST STOP JUMPDEST CALLVALUE DUP1 ISZERO PUSH2 0xFC JUMPI PUSH1 0x0 DUP1 REVERT JUMPDEST POP PUSH2 0x105 PUSH2 0x19A JUMP JUMPDEST PUSH1 0x40 MLOAD PUSH2 0x112 SWAP2 SWAP1 PUSH2 0x2FA JUMP JUMPDEST PUSH1 0x40 MLOAD DUP1 SWAP2 SUB SWAP1 RETURN JUMPDEST CALLVALUE DUP1 ISZERO PUSH2 0x127 JUMPI PUSH1 0x0 DUP1 REVERT JUMPDEST POP PUSH2 0x130 PUSH2 0x1A0 JUMP JUMPDEST PUSH1 0x40 MLOAD PUSH2 0x13D SWAP2 SWAP1 PUSH2 0x3AE JUMP JUMPDEST PUSH1 0x40 MLOAD DUP1 SWAP2 SUB SWAP1 RETURN JUMPDEST CALLVALUE DUP1 ISZERO PUSH2 0x152 JUMPI PUSH1 0x0 DUP1 REVERT JUMPDEST POP PUSH2 0x16D PUSH1 0x4 DUP1 CALLDATASIZE SUB DUP2 ADD SWAP1 PUSH2 0x168 SWAP2 SWAP1 PUSH2 0x401 JUMP JUMPDEST PUSH2 0x22E JUMP JUMPDEST STOP JUMPDEST CALLVALUE DUP1 ISZERO PUSH2 0x17B JUMPI PUSH1 0x0 DUP1 REVERT JUMPDEST POP PUSH2 0x184 PUSH2 0x238 JUMP JUMPDEST PUSH1 0x40 MLOAD PUSH2 0x191 SWAP2 SWAP1 PUSH2 0x2FA JUMP JUMPDEST PUSH1 0x40 MLOAD DUP1 SWAP2 SUB SWAP1 RETURN JUMPDEST PUSH1 0x2 SLOAD DUP2 JUMP JUMPDEST PUSH1 0x1 DUP1 SLOAD PUSH2 0x1AD SWAP1 PUSH2 0x45D JUMP JUMPDEST DUP1 PUSH1 0x1F ADD PUSH1 0x20 DUP1 SWAP2 DIV MUL PUSH1 0x20 ADD PUSH1 0x40 MLOAD SWAP1 DUP2 ADD PUSH1 0x40 MSTORE DUP1 SWAP3 SWAP2 SWAP1 DUP2 DUP2 MSTORE PUSH1 0x20 ADD DUP3 DUP1 SLOAD PUSH2 0x1D9 SWAP1 PUSH2 0x45D JUMP JUMPDEST DUP1 ISZERO PUSH2 0x226 JUMPI DUP1 PUSH1 0x1F LT PUSH2 0x1FB JUMPI PUSH2 0x100 DUP1 DUP4 SLOAD DIV MUL DUP4 MSTORE SWAP2 PUSH1 0x20 ADD SWAP2 PUSH2 0x226 JUMP JUMPDEST DUP3 ADD SWAP2 SWAP1 PUSH1 0x0 MSTORE PUSH1 0x20 PUSH1 0x0 KECCAK256 SWAP1 JUMPDEST DUP2 SLOAD DUP2 MSTORE SWAP1 PUSH1 0x1 ADD SWAP1 PUSH1 0x20 ADD DUP1 DUP4 GT PUSH2 0x209 JUMPI DUP3 SWAP1 SUB PUSH1 0x1F AND DUP3 ADD SWAP2 JUMPDEST POP POP POP POP POP DUP2 JUMP JUMPDEST DUP1 PUSH1 0x2 DUP2 SWAP1 SSTORE POP POP JUMP JUMPDEST PUSH1 0x0 SLOAD DUP2 JUMP JUMPDEST DUP3 DUP1 SLOAD PUSH2 0x24A SWAP1 PUSH2 0x45D JUMP JUMPDEST SWAP1 PUSH1 0x0 MSTORE PUSH1 0x20 PUSH1 0x0 KECCAK256 SWAP1 PUSH1 0x1F ADD PUSH1 0x20 SWAP1 DIV DUP2 ADD SWAP3 DUP3 PUSH2 0x26C JUMPI PUSH1 0x0 DUP6 SSTORE PUSH2 0x2B3 JUMP JUMPDEST DUP3 PUSH1 0x1F LT PUSH2 0x285 JUMPI DUP1 MLOAD PUSH1 0xFF NOT AND DUP4 DUP1 ADD OR DUP6 SSTORE PUSH2 0x2B3 JUMP JUMPDEST DUP3 DUP1 ADD PUSH1 0x1 ADD DUP6 SSTORE DUP3 ISZERO PUSH2 0x2B3 JUMPI SWAP2 DUP3 ADD JUMPDEST DUP3 DUP2 GT ISZERO PUSH2 0x2B2 JUMPI DUP3 MLOAD DUP3 SSTORE SWAP2 PUSH1 0x20 ADD SWAP2 SWAP1 PUSH1 0x1 ADD SWAP1 PUSH2 0x297 JUMP JUMPDEST JUMPDEST POP SWAP1 POP PUSH2 0x2C0 SWAP2 SWAP1 PUSH2 0x2C4 JUMP JUMPDEST POP SWAP1 JUMP JUMPDEST JUMPDEST DUP1 DUP3 GT ISZERO PUSH2 0x2DD JUMPI PUSH1 0x0 DUP2 PUSH1 0x0 SWAP1 SSTORE POP PUSH1 0x1 ADD PUSH2 0x2C5 JUMP JUMPDEST POP SWAP1 JUMP JUMPDEST PUSH1 0x0 DUP2 SWAP1 POP SWAP2 SWAP1 POP JUMP JUMPDEST PUSH2 0x2F4 DUP2 PUSH2 0x2E1 JUMP JUMPDEST DUP3 MSTORE POP POP JUMP JUMPDEST PUSH1 0x0 PUSH1 0x20 DUP3 ADD SWAP1 POP PUSH2 0x30F PUSH1 0x0 DUP4 ADD DUP5 PUSH2 0x2EB JUMP JUMPDEST SWAP3 SWAP2 POP POP JUMP JUMPDEST PUSH1 0x0 DUP2 MLOAD SWAP1 POP SWAP2 SWAP1 POP JUMP JUMPDEST PUSH1 0x0 DUP3 DUP3 MSTORE PUSH1 0x20 DUP3 ADD SWAP1 POP SWAP3 SWAP2 POP POP JUMP JUMPDEST PUSH1 0x0 JUMPDEST DUP4 DUP2 LT ISZERO PUSH2 0x34F JUMPI DUP1 DUP3 ADD MLOAD DUP2 DUP5 ADD MSTORE PUSH1 0x20 DUP2 ADD SWAP1 POP PUSH2 0x334 JUMP JUMPDEST DUP4 DUP2 GT ISZERO PUSH2 0x35E JUMPI PUSH1 0x0 DUP5 DUP5 ADD MSTORE JUMPDEST POP POP POP POP JUMP JUMPDEST PUSH1 0x0 PUSH1 0x1F NOT PUSH1 0x1F DUP4 ADD AND SWAP1 POP SWAP2 SWAP1 POP JUMP JUMPDEST PUSH1 0x0 PUSH2 0x380 DUP3 PUSH2 0x315 JUMP JUMPDEST PUSH2 0x38A DUP2 DUP6 PUSH2 0x320 JUMP JUMPDEST SWAP4 POP PUSH2 0x39A DUP2 DUP6 PUSH1 0x20 DUP7 ADD PUSH2 0x331 JUMP JUMPDEST PUSH2 0x3A3 DUP2 PUSH2 0x364 JUMP JUMPDEST DUP5 ADD SWAP2 POP POP SWAP3 SWAP2 POP POP JUMP JUMPDEST PUSH1 0x0 PUSH1 0x20 DUP3 ADD SWAP1 POP DUP2 DUP2 SUB PUSH1 0x0 DUP4 ADD MSTORE PUSH2 0x3C8 DUP2 DUP5 PUSH2 0x375 JUMP JUMPDEST SWAP1 POP SWAP3 SWAP2 POP POP JUMP JUMPDEST PUSH1 0x0 DUP1 REVERT JUMPDEST PUSH2 0x3DE DUP2 PUSH2 0x2E1 JUMP JUMPDEST DUP2 EQ PUSH2 0x3E9 JUMPI PUSH1 0x0 DUP1 REVERT JUMPDEST POP JUMP JUMPDEST PUSH1 0x0 DUP2 CALLDATALOAD SWAP1 POP PUSH2 0x3FB DUP2 PUSH2 0x3D5 JUMP JUMPDEST SWAP3 SWAP2 POP POP JUMP JUMPDEST PUSH1 0x0 PUSH1 0x20 DUP3 DUP5 SUB SLT ISZERO PUSH2 0x417 JUMPI PUSH2 0x416 PUSH2 0x3D0 JUMP JUMPDEST JUMPDEST PUSH1 0x0 PUSH2 0x425 DUP5 DUP3 DUP6 ADD PUSH2 0x3EC JUMP JUMPDEST SWAP2 POP POP SWAP3 SWAP2 POP POP JUMP JUMPDEST PUSH32 0x4E487B7100000000000000000000000000000000000000000000000000000000 PUSH1 0x0 MSTORE PUSH1 0x22 PUSH1 0x4 MSTORE PUSH1 0x24 PUSH1 0x0 REVERT JUMPDEST PUSH1 0x0 PUSH1 0x2 DUP3 DIV SWAP1 POP PUSH1 0x1 DUP3 AND DUP1 PUSH2 0x475 JUMPI PUSH1 0x7F DUP3 AND SWAP2 POP JUMPDEST PUSH1 0x20 DUP3 LT DUP2 SUB PUSH2 0x488 JUMPI PUSH2 0x487 PUSH2 0x42E JUMP JUMPDEST JUMPDEST POP SWAP2 SWAP1 POP JUMP INVALID LOG2 PUSH5 0x6970667358 0x22 SLT KECCAK256 SELFDESTRUCT SWAP11 0x2B DUP9 0xBA 0xDC 0x2E DUP9 0x27 SWAP6 0xC SSTORE SMOD JUMPDEST PUSH5 0x510987DA37 0xAD 0x5E PUSH18 0x263797A159DCB5F5D864736F6C634300080E STOP CALLER "
		},
		"gasEstimates": {
			"creation": {
				"codeDepositCost": "244000",
				"executionCost": "287",
				"totalCost": "244287"
			},
			"external": {
				"": "infinite",
				"lastFunctionCalled()": "infinite",
				"lastValueSent()": "2473",
				"myUint()": "2407",
				"updateNewUint(uint256)": "22542"
			}
		},
		"methodIdentifiers": {
			"lastFunctionCalled()": "5f947586",
			"lastValueSent()": "e36a6655",
			"myUint()": "06540f7e",
			"updateNewUint(uint256)": "c0aacb9f"
		}
	},
	"abi": [
		{
			"stateMutability": "payable",
			"type": "fallback"
		},
		{
			"inputs": [],
			"name": "lastFunctionCalled",
			"outputs": [
				{
					"internalType": "string",
					"name": "",
					"type": "string"
				}
			],
			"stateMutability": "view",
			"type": "function"
		},
		{
			"inputs": [],
			"name": "lastValueSent",
			"outputs": [
				{
					"internalType": "uint256",
					"name": "",
					"type": "uint256"
				}
			],
			"stateMutability": "view",
			"type": "function"
		},
		{
			"inputs": [],
			"name": "myUint",
			"outputs": [
				{
					"internalType": "uint256",
					"name": "",
					"type": "uint256"
				}
			],
			"stateMutability": "view",
			"type": "function"
		},
		{
			"inputs": [
				{
					"internalType": "uint256",
					"name": "newUint",
					"type": "uint256"
				}
			],
			"name": "updateNewUint",
			"outputs": [],
			"stateMutability": "nonpayable",
			"type": "function"
		},
		{
			"stateMutability": "payable",
			"type": "receive"
		}
	]
}